{
  "_format": "hh-sol-artifact-1",
  "contractName": "YourContract",
  "sourceName": "contracts/YourContract.sol",
  "abi": [
    {
      "inputs": [],
      "stateMutability": "nonpayable",
      "type": "constructor"
    },
    {
      "anonymous": false,
      "inputs": [
        {
          "indexed": true,
          "internalType": "bytes32",
          "name": "id",
          "type": "bytes32"
        }
      ],
      "name": "ChainlinkCancelled",
      "type": "event"
    },
    {
      "anonymous": false,
      "inputs": [
        {
          "indexed": true,
          "internalType": "bytes32",
          "name": "id",
          "type": "bytes32"
        }
      ],
      "name": "ChainlinkFulfilled",
      "type": "event"
    },
    {
      "anonymous": false,
      "inputs": [
        {
          "indexed": true,
          "internalType": "bytes32",
          "name": "id",
          "type": "bytes32"
        }
      ],
      "name": "ChainlinkRequested",
      "type": "event"
    },
    {
      "anonymous": false,
      "inputs": [
        {
          "indexed": false,
          "internalType": "uint256",
          "name": "_relChange",
          "type": "uint256"
        }
      ],
      "name": "GetRelChange",
      "type": "event"
    },
    {
      "anonymous": false,
      "inputs": [
        {
          "indexed": false,
          "internalType": "address",
          "name": "_winner",
          "type": "address"
        },
        {
          "indexed": false,
          "internalType": "uint256",
          "name": "_amount",
          "type": "uint256"
        }
      ],
      "name": "PayoutTo",
      "type": "event"
    },
    {
      "anonymous": false,
      "inputs": [
        {
          "indexed": true,
          "internalType": "address",
          "name": "_requester",
          "type": "address"
        },
        {
          "indexed": true,
          "internalType": "uint256",
          "name": "_oracleData",
          "type": "uint256"
        }
      ],
      "name": "RequesterToData",
      "type": "event"
    },
    {
      "anonymous": false,
      "inputs": [
        {
          "indexed": true,
          "internalType": "address",
          "name": "_requester",
          "type": "address"
        },
        {
          "indexed": true,
          "internalType": "uint256",
          "name": "_data",
          "type": "uint256"
        }
      ],
      "name": "SetData",
      "type": "event"
    },
    {
      "inputs": [],
      "name": "aWethBalance",
      "outputs": [
        {
          "internalType": "uint256",
          "name": "",
          "type": "uint256"
        }
      ],
      "stateMutability": "view",
      "type": "function"
    },
    {
      "inputs": [],
      "name": "averageRelGHGV",
      "outputs": [
        {
          "internalType": "uint256",
          "name": "",
          "type": "uint256"
        }
      ],
      "stateMutability": "view",
      "type": "function"
    },
    {
      "inputs": [
        {
          "internalType": "bytes32",
          "name": "_requestId",
          "type": "bytes32"
        },
        {
          "internalType": "uint256",
          "name": "_data",
          "type": "uint256"
        }
      ],
      "name": "fulfill",
      "outputs": [],
      "stateMutability": "nonpayable",
      "type": "function"
    },
    {
      "inputs": [],
      "name": "getData",
      "outputs": [
        {
          "internalType": "uint256[]",
          "name": "",
          "type": "uint256[]"
        }
      ],
      "stateMutability": "view",
      "type": "function"
    },
    {
      "inputs": [],
      "name": "getRelChange",
      "outputs": [],
      "stateMutability": "nonpayable",
      "type": "function"
    },
    {
      "inputs": [],
      "name": "lastAWETHBalance",
      "outputs": [
        {
          "internalType": "uint256",
          "name": "",
          "type": "uint256"
        }
      ],
      "stateMutability": "view",
      "type": "function"
    },
    {
      "inputs": [
        {
          "internalType": "uint256",
          "name": "",
          "type": "uint256"
        }
      ],
      "name": "oracleData",
      "outputs": [
        {
          "internalType": "uint256",
          "name": "",
          "type": "uint256"
        }
      ],
      "stateMutability": "view",
      "type": "function"
    },
    {
      "inputs": [],
      "name": "payOrGetPaid",
      "outputs": [],
      "stateMutability": "nonpayable",
      "type": "function"
    },
    {
      "inputs": [
        {
          "internalType": "uint256",
          "name": "",
          "type": "uint256"
        }
      ],
      "name": "penalized",
      "outputs": [
        {
          "internalType": "address",
          "name": "",
          "type": "address"
        }
      ],
      "stateMutability": "view",
      "type": "function"
    },
    {
      "inputs": [],
      "name": "prepareData",
      "outputs": [],
      "stateMutability": "nonpayable",
      "type": "function"
    },
    {
      "inputs": [
        {
          "internalType": "uint256",
          "name": "",
          "type": "uint256"
        }
      ],
      "name": "relativeGHG",
      "outputs": [
        {
          "internalType": "uint256",
          "name": "",
          "type": "uint256"
        }
      ],
      "stateMutability": "view",
      "type": "function"
    },
    {
      "inputs": [
        {
          "internalType": "string",
          "name": "_API",
          "type": "string"
        }
      ],
      "name": "requestVolumeData",
      "outputs": [
        {
          "internalType": "bytes32",
          "name": "requestId",
          "type": "bytes32"
        }
      ],
      "stateMutability": "nonpayable",
      "type": "function"
    },
    {
      "inputs": [],
      "name": "requesterToData",
      "outputs": [],
      "stateMutability": "nonpayable",
      "type": "function"
    },
    {
      "inputs": [
        {
          "internalType": "uint256",
          "name": "",
          "type": "uint256"
        }
      ],
      "name": "requesters",
      "outputs": [
        {
          "internalType": "address",
          "name": "",
          "type": "address"
        }
      ],
      "stateMutability": "view",
      "type": "function"
    },
    {
      "inputs": [
        {
          "internalType": "uint256",
          "name": "",
          "type": "uint256"
        }
      ],
      "name": "rewarded",
      "outputs": [
        {
          "internalType": "address",
          "name": "",
          "type": "address"
        }
      ],
      "stateMutability": "view",
      "type": "function"
    },
    {
      "inputs": [
        {
          "internalType": "uint256",
          "name": "_data",
          "type": "uint256"
        }
      ],
      "name": "setData",
      "outputs": [],
      "stateMutability": "nonpayable",
      "type": "function"
    },
    {
      "inputs": [],
      "name": "stake",
      "outputs": [],
      "stateMutability": "payable",
      "type": "function"
    },
    {
      "inputs": [
        {
          "internalType": "uint256",
          "name": "",
          "type": "uint256"
        }
      ],
      "name": "stakerReg",
      "outputs": [
        {
          "internalType": "address payable",
          "name": "",
          "type": "address"
        }
      ],
      "stateMutability": "view",
      "type": "function"
    },
    {
      "inputs": [],
      "name": "withdrawLink",
      "outputs": [],
      "stateMutability": "nonpayable",
      "type": "function"
    }
  ],
  "bytecode": "0x608060405260016004556000601055601480546001600160a01b031990811673f8ac10e65f2073460aad5f28e1eabe807dc287cf179091556015805482167387b1f4cf9bd63f7bbd3ee1ad04e8f525403493471790556016805490911673d0a1e359811322d97991e03f863a0c30c2cf029c1790553480156200008157600080fd5b506200008c620000e8565b600680546001600160a01b03191673aa1dc356dc4b18f30c347798fd5379f3d77abc5b1790557f633764643732636131346234346630633962366366636434623765633061326360075567016345785d8a000060085562000192565b6200016e73c89bd4e1632d3a43cb03aaad5262cbe4038bc5716001600160a01b03166338cc48316040518163ffffffff1660e01b815260040160206040518083038186803b1580156200013a57600080fd5b505afa1580156200014f573d6000803e3d6000fd5b505050506040513d60208110156200016657600080fd5b505162000170565b565b600280546001600160a01b0319166001600160a01b0392909216919091179055565b611d1e80620001a26000396000f3fe6080604052600436106101145760003560e01c80635f956d1a116100a0578063aa4dea0011610064578063aa4dea00146103d4578063bb4772e5146103fe578063c7bef65d14610413578063ed6c29aa14610428578063f4d638df1461043d57610114565b80635f956d1a146102b857806361598c711461036b5780638dc654a2146103955780638fc813c5146103aa578063944d7b55146103bf57610114565b80634357855e116100e75780634357855e146101f55780634819c6321461022557806352f1e5891461024f5780635b4b73a9146102645780635e1a6c171461028e57610114565b8063196a4b84146101195780633094cb741461015f5780633a4b66f1146101865780633bc5de3014610190575b600080fd5b34801561012557600080fd5b506101436004803603602081101561013c57600080fd5b5035610467565b604080516001600160a01b039092168252519081900360200190f35b34801561016b57600080fd5b5061017461048e565b60408051918252519081900360200190f35b61018e610494565b005b34801561019c57600080fd5b506101a56106ac565b60408051602080825283518183015283519192839290830191858101910280838360005b838110156101e15781810151838201526020016101c9565b505050509050019250505060405180910390f35b34801561020157600080fd5b5061018e6004803603604081101561021857600080fd5b508035906020013561070d565b34801561023157600080fd5b506101746004803603602081101561024857600080fd5b5035610810565b34801561025b57600080fd5b5061018e61082e565b34801561027057600080fd5b5061018e6004803603602081101561028757600080fd5b5035610933565b34801561029a57600080fd5b50610143600480360360208110156102b157600080fd5b5035610983565b3480156102c457600080fd5b50610174600480360360208110156102db57600080fd5b8101906020810181356401000000008111156102f657600080fd5b82018360208201111561030857600080fd5b8035906020019184600183028401116401000000008311171561032a57600080fd5b91908080601f016020809104026020016040519081016040528093929190818152602001838380828437600092019190915250929550610990945050505050565b34801561037757600080fd5b506101436004803603602081101561038e57600080fd5b5035610b1d565b3480156103a157600080fd5b5061018e610b2a565b3480156103b657600080fd5b5061018e610c83565b3480156103cb57600080fd5b50610174611055565b3480156103e057600080fd5b50610174600480360360208110156103f757600080fd5b503561105b565b34801561040a57600080fd5b5061018e611068565b34801561041f57600080fd5b5061018e611242565b34801561043457600080fd5b5061017461138b565b34801561044957600080fd5b506101436004803603602081101561046057600080fd5b5035611407565b600f818154811061047457fe5b6000918252602090912001546001600160a01b0316905081565b60105481565b600034116104d35760405162461bcd60e51b8152600401808060200182810382526024815260200180611c7a6024913960400191505060405180910390fd5b336000818152601360209081526040808320805460ff191660019081179091556009805491820181559093527f6e1540171b6c0c960b71a7020d9f60077f6af931a8bbf590da0223dacf75c7af90920180546001600160a01b03191690931790925560155481516370a0823160e01b815230600482015291516001600160a01b0391909116926370a082319260248082019391829003018186803b15801561057a57600080fd5b505afa15801561058e573d6000803e3d6000fd5b505050506040513d60208110156105a457600080fd5b5051601055601454604080516358c22be760e01b815230600482015260006024820181905291516001600160a01b03909316926358c22be79234926044808201939182900301818588803b1580156105fb57600080fd5b505af115801561060f573d6000803e3d6000fd5b5050601054601554604080516370a0823160e01b815230600482015290519295506001600160a01b0390911693506370a082319250602480820192602092909190829003018186803b15801561066457600080fd5b505afa158015610678573d6000803e3d6000fd5b505050506040513d602081101561068e57600080fd5b50513360009081526011602052604090208054929091039091019055565b3360009081526012602090815260409182902080548351818402810184019094528084526060939283018282801561070357602002820191906000526020600020905b8154815260200190600101908083116106ef575b5050505050905090565b60008281526005602052604090205482906001600160a01b031633146107645760405162461bcd60e51b8152600401808060200182810382526028815260200180611cc16028913960400191505060405180910390fd5b60008181526005602052604080822080546001600160a01b03191690555182917f7cc135e0cebb02c3480ae5d74d377283180a2601f8f644edf7987b009316c63a91a250600a805460018181019092557fc65a7bb8d6351c1cf70c95a316cc6a92839c986682d98bc35f958f4883f9d2a80191909155600b8054918201815560009081527f0175b7a638427703f0dbe7bb9bbf987a2551717b34e79f33b5b1008d1fa01db99091015550565b600b818154811061081d57fe5b600091825260209091200154905081565b600a54600d541461083e57600080fd5b60005b600d548110156109185760126000600d838154811061085c57fe5b60009182526020808320909101546001600160a01b031683528201929092526040019020600a80548390811061088e57fe5b60009182526020808320909101548354600181018555938352912090910155600a8054829081106108bb57fe5b9060005260206000200154600d82815481106108d357fe5b60009182526020822001546040516001600160a01b03909116917fcef9fc88e225fa1bbbecae68d6213c09e5033a0eeafe4afccd9709a9435c98fb91a3600101610841565b50610925600d6000611bf3565b610931600a6000611bf3565b565b3360008181526012602090815260408083208054600181018255908452918320909101849055518392917f10d7325afad389b2d1513a84eb27416d3f7cae3ddac7bc0cd24d7f4f1a00685191a350565b600d818154811061047457fe5b3360009081526013602052604081205460ff166109e3576040805162461bcd60e51b815260206004820152600c60248201526b2737ba10309039ba30b5b2b960a11b604482015290519081900360640190fd5b600d80546001810182556000919091527fd7b6990105719101dabeb77144f2a3385c8033acd3af97e9423a695e81ad1eb50180546001600160a01b03191633179055610a2d611c11565b600754610a4290306321abc2af60e11b611414565b60408051808201909152600381526219d95d60ea1b6020820152909150610a6b90829085611439565b610ac8604051806040016040528060048152602001630e0c2e8d60e31b815250604051806040016040528060148152602001736c6973742e302e636f6d706f6e656e74732e636f60601b815250836114399092919063ffffffff16565b60408051808201909152600581526474696d657360d81b6020820152670de0b6b3a764000090610afa9083908361145c565b600654600854610b15916001600160a01b031690849061147a565b949350505050565b6009818154811061047457fe5b6000610b34611648565b9050806001600160a01b031663a9059cbb33836001600160a01b03166370a08231306040518263ffffffff1660e01b815260040180826001600160a01b0316815260200191505060206040518083038186803b158015610b9357600080fd5b505afa158015610ba7573d6000803e3d6000fd5b505050506040513d6020811015610bbd57600080fd5b5051604080516001600160e01b031960e086901b1681526001600160a01b03909316600484015260248301919091525160448083019260209291908290030181600087803b158015610c0e57600080fd5b505af1158015610c22573d6000803e3d6000fd5b505050506040513d6020811015610c3857600080fd5b5051610c80576040805162461bcd60e51b81526020600482015260126024820152712ab730b13632903a37903a3930b739b332b960711b604482015290519081900360640190fd5b50565b610c8b611657565b60005b600b54811015610de557600c54600b8281548110610ca857fe5b90600052602060002001541015610d0857600f60098281548110610cc857fe5b60009182526020808320909101548354600181018555938352912090910180546001600160a01b0319166001600160a01b03909216919091179055610ddd565b600e60098281548110610d1757fe5b6000918252602080832090910154835460018101855593835290822090920180546001600160a01b0319166001600160a01b0390931692909217909155600e8054601192919084908110610d6757fe5b60009182526020808320909101546001600160a01b031683528281019390935260409182018120543082526011938490529181208054909201909155600e805491929183919085908110610db757fe5b60009182526020808320909101546001600160a01b031683528201929092526040019020555b600101610c8e565b5060005b600f5481101561104257600f543060009081526011602052604090205481610e0d57fe5b0460116000600f8481548110610e1f57fe5b60009182526020808320909101546001600160a01b03908116845283820194909452604092830182208054909501909455601554825163095ea7b360e01b815273f8ac10e65f2073460aad5f28e1eabe807dc287cf60048201526000196024820152925193169363095ea7b393604480850194929391928390030190829087803b158015610eac57600080fd5b505af1158015610ec0573d6000803e3d6000fd5b505050506040513d6020811015610ed657600080fd5b50506016546040805163095ea7b360e01b815273f8ac10e65f2073460aad5f28e1eabe807dc287cf6004820152600019602482015290516001600160a01b039092169163095ea7b3916044808201926020929091908290030181600087803b158015610f4157600080fd5b505af1158015610f55573d6000803e3d6000fd5b505050506040513d6020811015610f6b57600080fd5b5050601454600f80546001600160a01b03909216916336118b52916011916000919086908110610f9757fe5b60009182526020808320909101546001600160a01b03168352820192909252604001902054600f805485908110610fca57fe5b6000918252602082200154604080516001600160e01b031960e087901b16815260048101949094526001600160a01b0390911660248401525160448084019382900301818387803b15801561101e57600080fd5b505af1158015611032573d6000803e3d6000fd5b505060019092019150610de99050565b5030600090815260116020526040812055565b600c5481565b600a818154811061081d57fe5b60005b600954811015610c805760005b601260006009848154811061108957fe5b60009182526020808320909101546001600160a01b03168352820192909252604001902054811015611239578061117257600b60126000600985815481106110cd57fe5b60009182526020808320909101546001600160a01b0316835282019290925260400190208054839081106110fd57fe5b60009182526020808320909101548354600181018555938352912090910155600b80547fe87559bd68d91949aba8540903f38296d82d38ac0d9d687104cecd37448c8aaf91908490811061114d57fe5b90600052602060002001546040518082815260200191505060405180910390a1611231565b601260006009848154811061118357fe5b60009182526020808320909101546001600160a01b0316835282019290925260400190208054829081106111b357fe5b9060005260206000200154600b83815481106111cb57fe5b90600052602060002001600082825403925050819055507fe87559bd68d91949aba8540903f38296d82d38ac0d9d687104cecd37448c8aaf600b838154811061121057fe5b90600052602060002001546040518082815260200191505060405180910390a15b600101611078565b5060010161106b565b60098054600181810183557f6e1540171b6c0c960b71a7020d9f60077f6af931a8bbf590da0223dacf75c7af91820180546001600160a01b031990811673d8631e88f5a330faf7424def118a389e8405895c17909155835480830190945592909101805490921673497f35b5a2859343cdaa98aedb7605b2c46136d71790915560126020527fa63d50593a9f2d28784201546df2269b484f93965be799d7b91efe8b374b63aa8054808301825560647f6255b8012d5313325fa81cd2a413068816ad5d10d683a020e60dcfca85d972d79182018190558254808501909355603292909101919091557ffe8d6ea8e6ae634106c2dfe6253476c728fd6c8430fb19502e28853f0bda05bf805480840182557f4936ef248d4ca473a122a820ab669efcd6901bad2fd4a840dc188f3673ee29f890810192909255805492830181556000526050910155565b601554604080516370a0823160e01b815230600482015290516000926001600160a01b0316916370a08231916024808301926020929190829003018186803b1580156113d657600080fd5b505afa1580156113ea573d6000803e3d6000fd5b505050506040513d602081101561140057600080fd5b5051905090565b600e818154811061047457fe5b61141c611c11565b611424611c11565b611430818686866116b2565b95945050505050565b608083015161144890836116ef565b608083015161145790826116ef565b505050565b608083015161146b90836116ef565b60808301516114579082611706565b6004546040805130606090811b60208084019190915260348084018690528451808503909101815260549093018452825192810192909220908601939093526000838152600590915281812080546001600160a01b0319166001600160a01b038816179055905182917fb5e6e01e79f91267dc17b4e6314d5d4d03593d2ceee0fbb452b750bd70ea5af991a26002546001600160a01b0316634000aea0858461152287611765565b6040518463ffffffff1660e01b815260040180846001600160a01b0316815260200183815260200180602001828103825283818151815260200191508051906020019080838360005b8381101561158357818101518382015260200161156b565b50505050905090810190601f1680156115b05780820380516001836020036101000a031916815260200191505b50945050505050602060405180830381600087803b1580156115d157600080fd5b505af11580156115e5573d6000803e3d6000fd5b505050506040513d60208110156115fb57600080fd5b50516116385760405162461bcd60e51b8152600401808060200182810382526023815260200180611c9e6023913960400191505060405180910390fd5b6004805460010190559392505050565b6002546001600160a01b031690565b60005b600b5461ffff8216101561169657600b8161ffff168154811061167957fe5b600091825260209091200154600c8054909101905560010161165a565b50600b54600c80546000908390816116aa57fe5b049091555050565b6116ba611c11565b6116ca8560800151610100611889565b50509183526001600160a01b031660208301526001600160e01b031916604082015290565b6116fc82600383516118c9565b61145782826119a3565b67ffffffffffffffff198112156117265761172182826119c4565b611761565b67ffffffffffffffff8113156117405761172182826119fd565b6000811261175457611721826000836118c9565b61176182600183196118c9565b5050565b6060634042994660e01b6000808460000151856020015186604001518760600151600189608001516000015160405160240180896001600160a01b03168152602001888152602001878152602001866001600160a01b03168152602001856001600160e01b031916815260200184815260200183815260200180602001828103825283818151815260200191508051906020019080838360005b838110156118175781810151838201526020016117ff565b50505050905090810190601f1680156118445780820380516001836020036101000a031916815260200191505b5060408051601f198184030181529190526020810180516001600160e01b03166001600160e01b0319909d169c909c17909b5250989950505050505050505050919050565b611891611c46565b60208206156118a65760208206602003820191505b506020808301829052604080518085526000815283019091019052815b92915050565b601781116118ea576118e48360e0600585901b168317611a32565b50611457565b60ff811161191457611907836018611fe0600586901b1617611a32565b506118e483826001611a4a565b61ffff811161193f57611932836019611fe0600586901b1617611a32565b506118e483826002611a4a565b63ffffffff811161196c5761195f83601a611fe0600586901b1617611a32565b506118e483826004611a4a565b67ffffffffffffffff81116114575761199083601b611fe0600586901b1617611a32565b5061199d83826008611a4a565b50505050565b6119ab611c46565b6119bd83846000015151848551611a63565b9392505050565b6119cf8260c3611a32565b5061176182826000190360405160200180828152602001915050604051602081830303815290604052611b0f565b611a088260c2611a32565b50611761828260405160200180828152602001915050604051602081830303815290604052611b0f565b611a3a611c46565b6119bd8384600001515184611b1c565b611a52611c46565b610b15848560000151518585611b67565b611a6b611c46565b8251821115611a7957600080fd5b84602001518285011115611aa357611aa385611a9b8760200151878601611bc5565b600202611bdc565b600080865180518760208301019350808887011115611ac25787860182525b505050602084015b60208410611ae95780518252601f199093019260209182019101611aca565b51815160001960208690036101000a019081169019919091161790525083949350505050565b6116fc82600283516118c9565b611b24611c46565b83602001518310611b4057611b40848560200151600202611bdc565b835180516020858301018481535080851415611b5d576001810182525b5093949350505050565b611b6f611c46565b84602001518483011115611b8c57611b8c85858401600202611bdc565b60006001836101000a039050855183868201018583198251161781525080518487011115611bba5783860181525b509495945050505050565b600081831115611bd65750816118c3565b50919050565b8151611be88383611889565b5061199d83826119a3565b5080546000825590600052602060002090810190610c809190611c60565b6040805160a081018252600080825260208201819052918101829052606081019190915260808101611c41611c46565b905290565b604051806040016040528060608152602001600081525090565b5b80821115611c755760008155600101611c61565b509056fe5374616b696e6720616d6f756e74206d75737420626520686967686572207468616e2030756e61626c6520746f207472616e73666572416e6443616c6c20746f206f7261636c65536f75726365206d75737420626520746865206f7261636c65206f66207468652072657175657374a2646970667358221220f890045391d84c5398f10700876ca1889501f1887fe0d632d4e37f4d76db09ec64736f6c634300060c0033",
  "linkReferences": {},
  "deployedLinkReferences": {}
}