{
  "_format": "hh-sol-artifact-1",
  "contractName": "YourContract",
  "sourceName": "contracts/YourContract.sol",
  "abi": [
    {
      "inputs": [],
      "stateMutability": "nonpayable",
      "type": "constructor"
    },
    {
      "anonymous": false,
      "inputs": [
        {
          "indexed": true,
          "internalType": "bytes32",
          "name": "id",
          "type": "bytes32"
        }
      ],
      "name": "ChainlinkCancelled",
      "type": "event"
    },
    {
      "anonymous": false,
      "inputs": [
        {
          "indexed": true,
          "internalType": "bytes32",
          "name": "id",
          "type": "bytes32"
        }
      ],
      "name": "ChainlinkFulfilled",
      "type": "event"
    },
    {
      "anonymous": false,
      "inputs": [
        {
          "indexed": true,
          "internalType": "bytes32",
          "name": "id",
          "type": "bytes32"
        }
      ],
      "name": "ChainlinkRequested",
      "type": "event"
    },
    {
      "anonymous": false,
      "inputs": [
        {
          "indexed": false,
          "internalType": "uint256",
          "name": "_relChange",
          "type": "uint256"
        }
      ],
      "name": "GetRelChange",
      "type": "event"
    },
    {
      "anonymous": false,
      "inputs": [
        {
          "indexed": false,
          "internalType": "address",
          "name": "_winner",
          "type": "address"
        },
        {
          "indexed": false,
          "internalType": "uint256",
          "name": "_amount",
          "type": "uint256"
        }
      ],
      "name": "PayoutTo",
      "type": "event"
    },
    {
      "anonymous": false,
      "inputs": [
        {
          "indexed": true,
          "internalType": "address",
          "name": "_requester",
          "type": "address"
        },
        {
          "indexed": true,
          "internalType": "uint256",
          "name": "_oracleData",
          "type": "uint256"
        }
      ],
      "name": "RequesterToData",
      "type": "event"
    },
    {
      "anonymous": false,
      "inputs": [
        {
          "indexed": true,
          "internalType": "address",
          "name": "_requester",
          "type": "address"
        },
        {
          "indexed": true,
          "internalType": "uint256",
          "name": "_data",
          "type": "uint256"
        }
      ],
      "name": "SetData",
      "type": "event"
    },
    {
      "inputs": [],
      "name": "aWethBalance",
      "outputs": [
        {
          "internalType": "uint256",
          "name": "",
          "type": "uint256"
        }
      ],
      "stateMutability": "view",
      "type": "function"
    },
    {
      "inputs": [],
      "name": "approveERC20s",
      "outputs": [],
      "stateMutability": "nonpayable",
      "type": "function"
    },
    {
      "inputs": [],
      "name": "averageRelGHGV",
      "outputs": [
        {
          "internalType": "uint256",
          "name": "",
          "type": "uint256"
        }
      ],
      "stateMutability": "view",
      "type": "function"
    },
    {
      "inputs": [
        {
          "internalType": "bytes32",
          "name": "_requestId",
          "type": "bytes32"
        },
        {
          "internalType": "uint256",
          "name": "_data",
          "type": "uint256"
        }
      ],
      "name": "fulfill",
      "outputs": [],
      "stateMutability": "nonpayable",
      "type": "function"
    },
    {
      "inputs": [],
      "name": "getData",
      "outputs": [
        {
          "internalType": "uint256[]",
          "name": "",
          "type": "uint256[]"
        }
      ],
      "stateMutability": "view",
      "type": "function"
    },
    {
      "inputs": [],
      "name": "getRelChange",
      "outputs": [],
      "stateMutability": "nonpayable",
      "type": "function"
    },
    {
      "inputs": [
        {
          "internalType": "uint256",
          "name": "",
          "type": "uint256"
        }
      ],
      "name": "oracleData",
      "outputs": [
        {
          "internalType": "uint256",
          "name": "",
          "type": "uint256"
        }
      ],
      "stateMutability": "view",
      "type": "function"
    },
    {
      "inputs": [],
      "name": "payOut",
      "outputs": [],
      "stateMutability": "nonpayable",
      "type": "function"
    },
    {
      "inputs": [
        {
          "internalType": "uint256",
          "name": "",
          "type": "uint256"
        }
      ],
      "name": "penalized",
      "outputs": [
        {
          "internalType": "address",
          "name": "",
          "type": "address"
        }
      ],
      "stateMutability": "view",
      "type": "function"
    },
    {
      "inputs": [],
      "name": "prepareData",
      "outputs": [],
      "stateMutability": "nonpayable",
      "type": "function"
    },
    {
      "inputs": [
        {
          "internalType": "uint256",
          "name": "",
          "type": "uint256"
        }
      ],
      "name": "relativeGHG",
      "outputs": [
        {
          "internalType": "uint256",
          "name": "",
          "type": "uint256"
        }
      ],
      "stateMutability": "view",
      "type": "function"
    },
    {
      "inputs": [
        {
          "internalType": "string",
          "name": "_API",
          "type": "string"
        }
      ],
      "name": "requestVolumeData",
      "outputs": [
        {
          "internalType": "bytes32",
          "name": "requestId",
          "type": "bytes32"
        }
      ],
      "stateMutability": "nonpayable",
      "type": "function"
    },
    {
      "inputs": [],
      "name": "requesterToData",
      "outputs": [],
      "stateMutability": "nonpayable",
      "type": "function"
    },
    {
      "inputs": [],
      "name": "rewardPenalize",
      "outputs": [],
      "stateMutability": "nonpayable",
      "type": "function"
    },
    {
      "inputs": [
        {
          "internalType": "uint256",
          "name": "",
          "type": "uint256"
        }
      ],
      "name": "rewarded",
      "outputs": [
        {
          "internalType": "address",
          "name": "",
          "type": "address"
        }
      ],
      "stateMutability": "view",
      "type": "function"
    },
    {
      "inputs": [
        {
          "internalType": "uint256",
          "name": "_data",
          "type": "uint256"
        }
      ],
      "name": "setData",
      "outputs": [],
      "stateMutability": "nonpayable",
      "type": "function"
    },
    {
      "inputs": [],
      "name": "stake",
      "outputs": [],
      "stateMutability": "payable",
      "type": "function"
    },
    {
      "inputs": [
        {
          "internalType": "uint256",
          "name": "",
          "type": "uint256"
        }
      ],
      "name": "stakerReg",
      "outputs": [
        {
          "internalType": "address payable",
          "name": "",
          "type": "address"
        }
      ],
      "stateMutability": "view",
      "type": "function"
    },
    {
      "inputs": [],
      "name": "withdrawLink",
      "outputs": [],
      "stateMutability": "nonpayable",
      "type": "function"
    }
  ],
  "bytecode": "0x608060405260016004556000601055601480546001600160a01b031990811673f8ac10e65f2073460aad5f28e1eabe807dc287cf179091556015805482167387b1f4cf9bd63f7bbd3ee1ad04e8f525403493471790556016805490911673d0a1e359811322d97991e03f863a0c30c2cf029c1790553480156200008157600080fd5b506200008c620000e8565b600680546001600160a01b03191673aa1dc356dc4b18f30c347798fd5379f3d77abc5b1790557f633764643732636131346234346630633962366366636434623765633061326360075567016345785d8a000060085562000192565b6200016e73c89bd4e1632d3a43cb03aaad5262cbe4038bc5716001600160a01b03166338cc48316040518163ffffffff1660e01b815260040160206040518083038186803b1580156200013a57600080fd5b505afa1580156200014f573d6000803e3d6000fd5b505050506040513d60208110156200016657600080fd5b505162000170565b565b600280546001600160a01b0319166001600160a01b0392909216919091179055565b611d3b80620001a26000396000f3fe6080604052600436106101145760003560e01c80638dc654a2116100a0578063c205240311610064578063c2052403146103d4578063c7bef65d146103e9578063d4fbbc87146103fe578063ed6c29aa14610413578063f4d638df1461042857610114565b80638dc654a214610356578063944d7b551461036b578063a2c0489314610380578063aa4dea0014610395578063bb4772e5146103bf57610114565b80634819c632116100e75780634819c632146101fe57806352f1e5891461023a5780635b4b73a91461024f5780635f956d1a1461027957806361598c711461032c57610114565b8063196a4b84146101195780633a4b66f11461015f5780633bc5de30146101695780634357855e146101ce575b600080fd5b34801561012557600080fd5b506101436004803603602081101561013c57600080fd5b5035610452565b604080516001600160a01b039092168252519081900360200190f35b610167610479565b005b34801561017557600080fd5b5061017e610691565b60408051602080825283518183015283519192839290830191858101910280838360005b838110156101ba5781810151838201526020016101a2565b505050509050019250505060405180910390f35b3480156101da57600080fd5b50610167600480360360408110156101f157600080fd5b50803590602001356106f2565b34801561020a57600080fd5b506102286004803603602081101561022157600080fd5b50356107f5565b60408051918252519081900360200190f35b34801561024657600080fd5b50610167610813565b34801561025b57600080fd5b506101676004803603602081101561027257600080fd5b5035610918565b34801561028557600080fd5b506102286004803603602081101561029c57600080fd5b8101906020810181356401000000008111156102b757600080fd5b8201836020820111156102c957600080fd5b803590602001918460018302840111640100000000831117156102eb57600080fd5b91908080601f016020809104026020016040519081016040528093929190818152602001838380828437600092019190915250929550610968945050505050565b34801561033857600080fd5b506101436004803603602081101561034f57600080fd5b5035610af5565b34801561036257600080fd5b50610167610b02565b34801561037757600080fd5b50610228610c5b565b34801561038c57600080fd5b50610167610c61565b3480156103a157600080fd5b50610228600480360360208110156103b857600080fd5b5035610d8d565b3480156103cb57600080fd5b50610167610d9a565b3480156103e057600080fd5b50610167610f74565b3480156103f557600080fd5b506101676110e7565b34801561040a57600080fd5b50610167611230565b34801561041f57600080fd5b50610228611311565b34801561043457600080fd5b506101436004803603602081101561044b57600080fd5b503561138d565b600f818154811061045f57fe5b6000918252602090912001546001600160a01b0316905081565b600034116104b85760405162461bcd60e51b8152600401808060200182810382526024815260200180611c976024913960400191505060405180910390fd5b336000818152601360209081526040808320805460ff191660019081179091556009805491820181559093527f6e1540171b6c0c960b71a7020d9f60077f6af931a8bbf590da0223dacf75c7af90920180546001600160a01b03191690931790925560155481516370a0823160e01b815230600482015291516001600160a01b0391909116926370a082319260248082019391829003018186803b15801561055f57600080fd5b505afa158015610573573d6000803e3d6000fd5b505050506040513d602081101561058957600080fd5b5051601055601454604080516358c22be760e01b815230600482015260006024820181905291516001600160a01b03909316926358c22be79234926044808201939182900301818588803b1580156105e057600080fd5b505af11580156105f4573d6000803e3d6000fd5b5050601054601554604080516370a0823160e01b815230600482015290519295506001600160a01b0390911693506370a082319250602480820192602092909190829003018186803b15801561064957600080fd5b505afa15801561065d573d6000803e3d6000fd5b505050506040513d602081101561067357600080fd5b50513360009081526011602052604090208054929091039091019055565b336000908152601260209081526040918290208054835181840281018401909452808452606093928301828280156106e857602002820191906000526020600020905b8154815260200190600101908083116106d4575b5050505050905090565b60008281526005602052604090205482906001600160a01b031633146107495760405162461bcd60e51b8152600401808060200182810382526028815260200180611cde6028913960400191505060405180910390fd5b60008181526005602052604080822080546001600160a01b03191690555182917f7cc135e0cebb02c3480ae5d74d377283180a2601f8f644edf7987b009316c63a91a250600a805460018181019092557fc65a7bb8d6351c1cf70c95a316cc6a92839c986682d98bc35f958f4883f9d2a80191909155600b8054918201815560009081527f0175b7a638427703f0dbe7bb9bbf987a2551717b34e79f33b5b1008d1fa01db99091015550565b600b818154811061080257fe5b600091825260209091200154905081565b600a54600d541461082357600080fd5b60005b600d548110156108fd5760126000600d838154811061084157fe5b60009182526020808320909101546001600160a01b031683528201929092526040019020600a80548390811061087357fe5b60009182526020808320909101548354600181018555938352912090910155600a8054829081106108a057fe5b9060005260206000200154600d82815481106108b857fe5b60009182526020822001546040516001600160a01b03909116917fcef9fc88e225fa1bbbecae68d6213c09e5033a0eeafe4afccd9709a9435c98fb91a3600101610826565b5061090a600d6000611c10565b610916600a6000611c10565b565b3360008181526012602090815260408083208054600181018255908452918320909101849055518392917f10d7325afad389b2d1513a84eb27416d3f7cae3ddac7bc0cd24d7f4f1a00685191a350565b3360009081526013602052604081205460ff166109bb576040805162461bcd60e51b815260206004820152600c60248201526b2737ba10309039ba30b5b2b960a11b604482015290519081900360640190fd5b600d80546001810182556000919091527fd7b6990105719101dabeb77144f2a3385c8033acd3af97e9423a695e81ad1eb50180546001600160a01b03191633179055610a05611c2e565b600754610a1a90306321abc2af60e11b61139a565b60408051808201909152600381526219d95d60ea1b6020820152909150610a43908290856113bf565b610aa0604051806040016040528060048152602001630e0c2e8d60e31b815250604051806040016040528060148152602001736c6973742e302e636f6d706f6e656e74732e636f60601b815250836113bf9092919063ffffffff16565b60408051808201909152600581526474696d657360d81b6020820152670de0b6b3a764000090610ad2908390836113e2565b600654600854610aed916001600160a01b0316908490611400565b949350505050565b6009818154811061045f57fe5b6000610b0c6115ce565b9050806001600160a01b031663a9059cbb33836001600160a01b03166370a08231306040518263ffffffff1660e01b815260040180826001600160a01b0316815260200191505060206040518083038186803b158015610b6b57600080fd5b505afa158015610b7f573d6000803e3d6000fd5b505050506040513d6020811015610b9557600080fd5b5051604080516001600160e01b031960e086901b1681526001600160a01b03909316600484015260248301919091525160448083019260209291908290030181600087803b158015610be657600080fd5b505af1158015610bfa573d6000803e3d6000fd5b505050506040513d6020811015610c1057600080fd5b5051610c58576040805162461bcd60e51b81526020600482015260126024820152712ab730b13632903a37903a3930b739b332b960711b604482015290519081900360640190fd5b50565b600c5481565b6015546040805163095ea7b360e01b815273f8ac10e65f2073460aad5f28e1eabe807dc287cf6004820152600019602482015290516001600160a01b039092169163095ea7b3916044808201926020929091908290030181600087803b158015610cca57600080fd5b505af1158015610cde573d6000803e3d6000fd5b505050506040513d6020811015610cf457600080fd5b50506016546040805163095ea7b360e01b815273f8ac10e65f2073460aad5f28e1eabe807dc287cf6004820152600019602482015290516001600160a01b039092169163095ea7b3916044808201926020929091908290030181600087803b158015610d5f57600080fd5b505af1158015610d73573d6000803e3d6000fd5b505050506040513d6020811015610d8957600080fd5b5050565b600a818154811061080257fe5b60005b600954811015610c585760005b6012600060098481548110610dbb57fe5b60009182526020808320909101546001600160a01b03168352820192909252604001902054811015610f6b5780610ea457600b6012600060098581548110610dff57fe5b60009182526020808320909101546001600160a01b031683528201929092526040019020805483908110610e2f57fe5b60009182526020808320909101548354600181018555938352912090910155600b80547fe87559bd68d91949aba8540903f38296d82d38ac0d9d687104cecd37448c8aaf919084908110610e7f57fe5b90600052602060002001546040518082815260200191505060405180910390a1610f63565b6012600060098481548110610eb557fe5b60009182526020808320909101546001600160a01b031683528201929092526040019020805482908110610ee557fe5b9060005260206000200154600b8381548110610efd57fe5b90600052602060002001600082825403925050819055507fe87559bd68d91949aba8540903f38296d82d38ac0d9d687104cecd37448c8aaf600b8381548110610f4257fe5b90600052602060002001546040518082815260200191505060405180910390a15b600101610daa565b50600101610d9d565b60005b600f54811015610c5857336001600160a01b0316600f8281548110610f9857fe5b6000918252602090912001546001600160a01b031614156110df57600f543060009081526011602052604090205481610fcd57fe5b33600081815260116020526040808220805495909404909401928390556014548451631b08c5a960e11b81526004810194909452602484019290925292516001600160a01b03909116926336118b52926044808201939182900301818387803b15801561103957600080fd5b505af115801561104d573d6000803e3d6000fd5b5050600f543060009081526011602052604090205490925090508161106e57fe5b30600090815260116020908152604080832080549590940490940390925533808252908390205483519182529181019190915281517f695d9f48d38404ab4e67bdc812c4a80cba93ef87f7c4dd887537c418c5bf9a4a929181900390910190a1336000908152601160205260408120555b600101610f77565b60098054600181810183557f6e1540171b6c0c960b71a7020d9f60077f6af931a8bbf590da0223dacf75c7af91820180546001600160a01b031990811673d8631e88f5a330faf7424def118a389e8405895c17909155835480830190945592909101805490921673497f35b5a2859343cdaa98aedb7605b2c46136d71790915560126020527fa63d50593a9f2d28784201546df2269b484f93965be799d7b91efe8b374b63aa8054808301825560647f6255b8012d5313325fa81cd2a413068816ad5d10d683a020e60dcfca85d972d79182018190558254808501909355603292909101919091557ffe8d6ea8e6ae634106c2dfe6253476c728fd6c8430fb19502e28853f0bda05bf805480840182557f4936ef248d4ca473a122a820ab669efcd6901bad2fd4a840dc188f3673ee29f890810192909255805492830181556000526050910155565b6112386115dd565b60005b600b5481101561130857600c54600b828154811061125557fe5b906000526020600020015411156112b557600f6009828154811061127557fe5b60009182526020808320909101548354600181018555938352912090910180546001600160a01b0319166001600160a01b03909216919091179055611300565b600e600982815481106112c457fe5b60009182526020808320909101548354600181018555938352912090910180546001600160a01b0319166001600160a01b039092169190911790555b60010161123b565b50610916611638565b601554604080516370a0823160e01b815230600482015290516000926001600160a01b0316916370a08231916024808301926020929190829003018186803b15801561135c57600080fd5b505afa158015611370573d6000803e3d6000fd5b505050506040513d602081101561138657600080fd5b5051905090565b600e818154811061045f57fe5b6113a2611c2e565b6113aa611c2e565b6113b6818686866116d3565b95945050505050565b60808301516113ce9083611710565b60808301516113dd9082611710565b505050565b60808301516113f19083611710565b60808301516113dd9082611727565b6004546040805130606090811b60208084019190915260348084018690528451808503909101815260549093018452825192810192909220908601939093526000838152600590915281812080546001600160a01b0319166001600160a01b038816179055905182917fb5e6e01e79f91267dc17b4e6314d5d4d03593d2ceee0fbb452b750bd70ea5af991a26002546001600160a01b0316634000aea085846114a887611782565b6040518463ffffffff1660e01b815260040180846001600160a01b0316815260200183815260200180602001828103825283818151815260200191508051906020019080838360005b838110156115095781810151838201526020016114f1565b50505050905090810190601f1680156115365780820380516001836020036101000a031916815260200191505b50945050505050602060405180830381600087803b15801561155757600080fd5b505af115801561156b573d6000803e3d6000fd5b505050506040513d602081101561158157600080fd5b50516115be5760405162461bcd60e51b8152600401808060200182810382526023815260200180611cbb6023913960400191505060405180910390fd5b6004805460010190559392505050565b6002546001600160a01b031690565b60005b600b5461ffff8216101561161c57600b8161ffff16815481106115ff57fe5b600091825260209091200154600c805490910190556001016115e0565b50600b54600c805460009083908161163057fe5b049091555050565b60005b600e54811015610c585760116000600e838154811061165657fe5b60009182526020808320909101546001600160a01b031683528281019390935260409182018120543082526011938490529181208054909201909155600e8054919291839190859081106116a657fe5b60009182526020808320909101546001600160a01b0316835282019290925260400190205560010161163b565b6116db611c2e565b6116eb85608001516101006118a6565b50509183526001600160a01b031660208301526001600160e01b031916604082015290565b61171d82600383516118e6565b6113dd82826119c0565b67ffffffffffffffff198112156117475761174282826119e1565b610d89565b67ffffffffffffffff811315611761576117428282611a1a565b6000811261177557611742826000836118e6565b610d8982600183196118e6565b6060634042994660e01b6000808460000151856020015186604001518760600151600189608001516000015160405160240180896001600160a01b03168152602001888152602001878152602001866001600160a01b03168152602001856001600160e01b031916815260200184815260200183815260200180602001828103825283818151815260200191508051906020019080838360005b8381101561183457818101518382015260200161181c565b50505050905090810190601f1680156118615780820380516001836020036101000a031916815260200191505b5060408051601f198184030181529190526020810180516001600160e01b03166001600160e01b0319909d169c909c17909b5250989950505050505050505050919050565b6118ae611c63565b60208206156118c35760208206602003820191505b506020808301829052604080518085526000815283019091019052815b92915050565b60178111611907576119018360e0600585901b168317611a4f565b506113dd565b60ff811161193157611924836018611fe0600586901b1617611a4f565b5061190183826001611a67565b61ffff811161195c5761194f836019611fe0600586901b1617611a4f565b5061190183826002611a67565b63ffffffff81116119895761197c83601a611fe0600586901b1617611a4f565b5061190183826004611a67565b67ffffffffffffffff81116113dd576119ad83601b611fe0600586901b1617611a4f565b506119ba83826008611a67565b50505050565b6119c8611c63565b6119da83846000015151848551611a80565b9392505050565b6119ec8260c3611a4f565b50610d8982826000190360405160200180828152602001915050604051602081830303815290604052611b2c565b611a258260c2611a4f565b50610d89828260405160200180828152602001915050604051602081830303815290604052611b2c565b611a57611c63565b6119da8384600001515184611b39565b611a6f611c63565b610aed848560000151518585611b84565b611a88611c63565b8251821115611a9657600080fd5b84602001518285011115611ac057611ac085611ab88760200151878601611be2565b600202611bf9565b600080865180518760208301019350808887011115611adf5787860182525b505050602084015b60208410611b065780518252601f199093019260209182019101611ae7565b51815160001960208690036101000a019081169019919091161790525083949350505050565b61171d82600283516118e6565b611b41611c63565b83602001518310611b5d57611b5d848560200151600202611bf9565b835180516020858301018481535080851415611b7a576001810182525b5093949350505050565b611b8c611c63565b84602001518483011115611ba957611ba985858401600202611bf9565b60006001836101000a039050855183868201018583198251161781525080518487011115611bd75783860181525b509495945050505050565b600081831115611bf35750816118e0565b50919050565b8151611c0583836118a6565b506119ba83826119c0565b5080546000825590600052602060002090810190610c589190611c7d565b6040805160a081018252600080825260208201819052918101829052606081019190915260808101611c5e611c63565b905290565b604051806040016040528060608152602001600081525090565b5b80821115611c925760008155600101611c7e565b509056fe5374616b696e6720616d6f756e74206d75737420626520686967686572207468616e2030756e61626c6520746f207472616e73666572416e6443616c6c20746f206f7261636c65536f75726365206d75737420626520746865206f7261636c65206f66207468652072657175657374a2646970667358221220df38d4e1ef035c95b135bc1e2a5420db93d1a67544f20e604270b5fdae52911664736f6c634300060c0033",
  "linkReferences": {},
  "deployedLinkReferences": {}
}