{
  "_format": "hh-sol-artifact-1",
  "contractName": "YourContract",
  "sourceName": "contracts/YourContract.sol",
  "abi": [
    {
      "inputs": [],
      "stateMutability": "nonpayable",
      "type": "constructor"
    },
    {
      "anonymous": false,
      "inputs": [
        {
          "indexed": true,
          "internalType": "bytes32",
          "name": "id",
          "type": "bytes32"
        }
      ],
      "name": "ChainlinkCancelled",
      "type": "event"
    },
    {
      "anonymous": false,
      "inputs": [
        {
          "indexed": true,
          "internalType": "bytes32",
          "name": "id",
          "type": "bytes32"
        }
      ],
      "name": "ChainlinkFulfilled",
      "type": "event"
    },
    {
      "anonymous": false,
      "inputs": [
        {
          "indexed": true,
          "internalType": "bytes32",
          "name": "id",
          "type": "bytes32"
        }
      ],
      "name": "ChainlinkRequested",
      "type": "event"
    },
    {
      "anonymous": false,
      "inputs": [
        {
          "indexed": false,
          "internalType": "uint256",
          "name": "_relChange",
          "type": "uint256"
        }
      ],
      "name": "GetRelChange",
      "type": "event"
    },
    {
      "anonymous": false,
      "inputs": [
        {
          "indexed": false,
          "internalType": "address",
          "name": "_winner",
          "type": "address"
        },
        {
          "indexed": false,
          "internalType": "uint256",
          "name": "_amount",
          "type": "uint256"
        }
      ],
      "name": "PayoutTo",
      "type": "event"
    },
    {
      "anonymous": false,
      "inputs": [
        {
          "indexed": true,
          "internalType": "address",
          "name": "_requester",
          "type": "address"
        },
        {
          "indexed": true,
          "internalType": "uint256",
          "name": "_oracleData",
          "type": "uint256"
        }
      ],
      "name": "RequesterToData",
      "type": "event"
    },
    {
      "anonymous": false,
      "inputs": [
        {
          "indexed": true,
          "internalType": "address",
          "name": "_requester",
          "type": "address"
        },
        {
          "indexed": true,
          "internalType": "uint256",
          "name": "_data",
          "type": "uint256"
        }
      ],
      "name": "SetData",
      "type": "event"
    },
    {
      "inputs": [],
      "name": "averageRelGHGV",
      "outputs": [
        {
          "internalType": "uint256",
          "name": "",
          "type": "uint256"
        }
      ],
      "stateMutability": "view",
      "type": "function"
    },
    {
      "inputs": [],
      "name": "compareGHG",
      "outputs": [],
      "stateMutability": "nonpayable",
      "type": "function"
    },
    {
      "inputs": [
        {
          "internalType": "bytes32",
          "name": "_requestId",
          "type": "bytes32"
        },
        {
          "internalType": "uint256",
          "name": "_data",
          "type": "uint256"
        }
      ],
      "name": "fulfill",
      "outputs": [],
      "stateMutability": "nonpayable",
      "type": "function"
    },
    {
      "inputs": [],
      "name": "getData",
      "outputs": [
        {
          "internalType": "uint256[]",
          "name": "",
          "type": "uint256[]"
        }
      ],
      "stateMutability": "view",
      "type": "function"
    },
    {
      "inputs": [],
      "name": "getRelChange",
      "outputs": [],
      "stateMutability": "nonpayable",
      "type": "function"
    },
    {
      "inputs": [
        {
          "internalType": "uint256",
          "name": "",
          "type": "uint256"
        }
      ],
      "name": "oracleData",
      "outputs": [
        {
          "internalType": "uint256",
          "name": "",
          "type": "uint256"
        }
      ],
      "stateMutability": "view",
      "type": "function"
    },
    {
      "inputs": [],
      "name": "payOrGetPaid",
      "outputs": [],
      "stateMutability": "nonpayable",
      "type": "function"
    },
    {
      "inputs": [
        {
          "internalType": "uint256",
          "name": "",
          "type": "uint256"
        }
      ],
      "name": "penalized",
      "outputs": [
        {
          "internalType": "address",
          "name": "",
          "type": "address"
        }
      ],
      "stateMutability": "view",
      "type": "function"
    },
    {
      "inputs": [
        {
          "internalType": "uint256",
          "name": "",
          "type": "uint256"
        }
      ],
      "name": "relativeGHG",
      "outputs": [
        {
          "internalType": "uint256",
          "name": "",
          "type": "uint256"
        }
      ],
      "stateMutability": "view",
      "type": "function"
    },
    {
      "inputs": [
        {
          "internalType": "string",
          "name": "_API",
          "type": "string"
        }
      ],
      "name": "requestVolumeData",
      "outputs": [
        {
          "internalType": "bytes32",
          "name": "requestId",
          "type": "bytes32"
        }
      ],
      "stateMutability": "nonpayable",
      "type": "function"
    },
    {
      "inputs": [],
      "name": "requesterToData",
      "outputs": [],
      "stateMutability": "nonpayable",
      "type": "function"
    },
    {
      "inputs": [
        {
          "internalType": "uint256",
          "name": "",
          "type": "uint256"
        }
      ],
      "name": "requesters",
      "outputs": [
        {
          "internalType": "address",
          "name": "",
          "type": "address"
        }
      ],
      "stateMutability": "view",
      "type": "function"
    },
    {
      "inputs": [
        {
          "internalType": "uint256",
          "name": "",
          "type": "uint256"
        }
      ],
      "name": "rewarded",
      "outputs": [
        {
          "internalType": "address",
          "name": "",
          "type": "address"
        }
      ],
      "stateMutability": "view",
      "type": "function"
    },
    {
      "inputs": [
        {
          "internalType": "uint256",
          "name": "_data",
          "type": "uint256"
        }
      ],
      "name": "setData",
      "outputs": [],
      "stateMutability": "nonpayable",
      "type": "function"
    },
    {
      "inputs": [],
      "name": "stake",
      "outputs": [],
      "stateMutability": "payable",
      "type": "function"
    },
    {
      "inputs": [
        {
          "internalType": "uint256",
          "name": "",
          "type": "uint256"
        }
      ],
      "name": "stakerReg",
      "outputs": [
        {
          "internalType": "address payable",
          "name": "",
          "type": "address"
        }
      ],
      "stateMutability": "view",
      "type": "function"
    },
    {
      "inputs": [],
      "name": "stakingpool",
      "outputs": [
        {
          "internalType": "address",
          "name": "",
          "type": "address"
        }
      ],
      "stateMutability": "view",
      "type": "function"
    },
    {
      "inputs": [],
      "name": "withdrawLink",
      "outputs": [],
      "stateMutability": "nonpayable",
      "type": "function"
    }
  ],
  "bytecode": "0x60806040526001600455600a80546001600160a01b0319908116735b38da6a701c568545dcfcb03fcb875f56beddc41790915560148054821673f8ac10e65f2073460aad5f28e1eabe807dc287cf179055601580549091167387b1f4cf9bd63f7bbd3ee1ad04e8f525403493471790553480156200007c57600080fd5b5062000087620000e3565b600680546001600160a01b03191673aa1dc356dc4b18f30c347798fd5379f3d77abc5b1790557f633764643732636131346234346630633962366366636434623765633061326360075567016345785d8a00006008556200018d565b6200016973c89bd4e1632d3a43cb03aaad5262cbe4038bc5716001600160a01b03166338cc48316040518163ffffffff1660e01b815260040160206040518083038186803b1580156200013557600080fd5b505afa1580156200014a573d6000803e3d6000fd5b505050506040513d60208110156200016157600080fd5b50516200016b565b565b600280546001600160a01b0319166001600160a01b0392909216919091179055565b611a4b806200019d6000396000f3fe6080604052600436106101095760003560e01c806361598c7111610095578063933b591211610064578063933b5912146103b4578063944d7b55146103c9578063aa4dea00146103de578063bb4772e514610408578063f4d638df1461041d57610109565b806361598c711461034b5780636e4714e4146103755780638dc654a21461038a5780638fc813c51461039f57610109565b80634819c632116100dc5780634819c632146101f357806352f1e5891461022f5780635b4b73a9146102445780635e1a6c171461026e5780635f956d1a1461029857610109565b8063196a4b841461010e5780633a4b66f1146101545780633bc5de301461015e5780634357855e146101c3575b600080fd5b34801561011a57600080fd5b506101386004803603602081101561013157600080fd5b5035610447565b604080516001600160a01b039092168252519081900360200190f35b61015c61046e565b005b34801561016a57600080fd5b506101736105ff565b60408051602080825283518183015283519192839290830191858101910280838360005b838110156101af578181015183820152602001610197565b505050509050019250505060405180910390f35b3480156101cf57600080fd5b5061015c600480360360408110156101e657600080fd5b5080359060200135610660565b3480156101ff57600080fd5b5061021d6004803603602081101561021657600080fd5b5035610763565b60408051918252519081900360200190f35b34801561023b57600080fd5b5061015c610781565b34801561025057600080fd5b5061015c6004803603602081101561026757600080fd5b5035610886565b34801561027a57600080fd5b506101386004803603602081101561029157600080fd5b50356108d6565b3480156102a457600080fd5b5061021d600480360360208110156102bb57600080fd5b8101906020810181356401000000008111156102d657600080fd5b8201836020820111156102e857600080fd5b8035906020019184600183028401116401000000008311171561030a57600080fd5b91908080601f0160208091040260200160405190810160405280939291908181526020018383808284376000920191909152509295506108e3945050505050565b34801561035757600080fd5b506101386004803603602081101561036e57600080fd5b5035610a70565b34801561038157600080fd5b50610138610a7d565b34801561039657600080fd5b5061015c610a8c565b3480156103ab57600080fd5b5061015c610be5565b3480156103c057600080fd5b5061015c610de1565b3480156103d557600080fd5b5061021d610f26565b3480156103ea57600080fd5b5061021d6004803603602081101561040157600080fd5b5035610f2c565b34801561041457600080fd5b5061015c610f39565b34801561042957600080fd5b506101386004803603602081101561044057600080fd5b5035611139565b6010818154811061045457fe5b6000918252602090912001546001600160a01b0316905081565b600034116104ad5760405162461bcd60e51b81526004018080602001828103825260248152602001806119a76024913960400191505060405180910390fd5b33600081815260136020526040808220805460ff1916600190811790915560098054918201815583527f6e1540171b6c0c960b71a7020d9f60077f6af931a8bbf590da0223dacf75c7af0180546001600160a01b0319168417905560145481516358c22be760e01b815260048101949094526024840183905290516001600160a01b0391909116926358c22be792604480830193919282900301818387803b15801561055857600080fd5b505af115801561056c573d6000803e3d6000fd5b5050601554604080516370a0823160e01b815233600482015290516001600160a01b0390921693506370a082319250602480820192602092909190829003018186803b1580156105bb57600080fd5b505afa1580156105cf573d6000803e3d6000fd5b505050506040513d60208110156105e557600080fd5b505133600090815260116020526040902080549091019055565b3360009081526012602090815260409182902080548351818402810184019094528084526060939283018282801561065657602002820191906000526020600020905b815481526020019060010190808311610642575b5050505050905090565b60008281526005602052604090205482906001600160a01b031633146106b75760405162461bcd60e51b81526004018080602001828103825260288152602001806119ee6028913960400191505060405180910390fd5b60008181526005602052604080822080546001600160a01b03191690555182917f7cc135e0cebb02c3480ae5d74d377283180a2601f8f644edf7987b009316c63a91a250600b805460018181019092557f0175b7a638427703f0dbe7bb9bbf987a2551717b34e79f33b5b1008d1fa01db90191909155600c8054918201815560009081527fdf6966c971051c3d54ec59162606531493a51404a002842f56009d7e5cf4a8c79091015550565b600c818154811061077057fe5b600091825260209091200154905081565b600b54600e541461079157600080fd5b60005b600e5481101561086b5760126000600e83815481106107af57fe5b60009182526020808320909101546001600160a01b031683528201929092526040019020600b8054839081106107e157fe5b60009182526020808320909101548354600181018555938352912090910155600b80548290811061080e57fe5b9060005260206000200154600e828154811061082657fe5b60009182526020822001546040516001600160a01b03909116917fcef9fc88e225fa1bbbecae68d6213c09e5033a0eeafe4afccd9709a9435c98fb91a3600101610794565b50610878600e6000611920565b610884600b6000611920565b565b3360008181526012602090815260408083208054600181018255908452918320909101849055518392917f10d7325afad389b2d1513a84eb27416d3f7cae3ddac7bc0cd24d7f4f1a00685191a350565b600e818154811061045457fe5b3360009081526013602052604081205460ff16610936576040805162461bcd60e51b815260206004820152600c60248201526b2737ba10309039ba30b5b2b960a11b604482015290519081900360640190fd5b600e80546001810182556000919091527fbb7b4a454dc3493923482f07822329ed19e8244eff582cc204f8554c3620c3fd0180546001600160a01b0319163317905561098061193e565b60075461099590306321abc2af60e11b611146565b60408051808201909152600381526219d95d60ea1b60208201529091506109be9082908561116b565b610a1b604051806040016040528060048152602001630e0c2e8d60e31b815250604051806040016040528060148152602001736c6973742e302e636f6d706f6e656e74732e636f60601b8152508361116b9092919063ffffffff16565b60408051808201909152600581526474696d657360d81b6020820152670de0b6b3a764000090610a4d90839083611189565b600654600854610a68916001600160a01b03169084906111a7565b949350505050565b6009818154811061045457fe5b600a546001600160a01b031681565b6000610a96611375565b9050806001600160a01b031663a9059cbb33836001600160a01b03166370a08231306040518263ffffffff1660e01b815260040180826001600160a01b0316815260200191505060206040518083038186803b158015610af557600080fd5b505afa158015610b09573d6000803e3d6000fd5b505050506040513d6020811015610b1f57600080fd5b5051604080516001600160e01b031960e086901b1681526001600160a01b03909316600484015260248301919091525160448083019260209291908290030181600087803b158015610b7057600080fd5b505af1158015610b84573d6000803e3d6000fd5b505050506040513d6020811015610b9a57600080fd5b5051610be2576040805162461bcd60e51b81526020600482015260126024820152712ab730b13632903a37903a3930b739b332b960711b604482015290519081900360640190fd5b50565b610bed611384565b60005b600c54811015610d4b57600d54600c8281548110610c0a57fe5b90600052602060002001541015610c6a57601060098281548110610c2a57fe5b60009182526020808320909101548354600181018555938352912090910180546001600160a01b0319166001600160a01b03909216919091179055610d43565b600f60098281548110610c7957fe5b6000918252602080832090910154835460018101855593835290822090920180546001600160a01b0319166001600160a01b0390931692909217909155600f8054601192919084908110610cc957fe5b60009182526020808320909101546001600160a01b039081168452838201949094526040928301822054600a5490941682526011908190529181208054909301909255600f805483919085908110610d1d57fe5b60009182526020808320909101546001600160a01b031683528201929092526040019020555b600101610bf0565b5060005b601054811015610dc357601054600a546001600160a01b031660009081526011602052604090205481610d7e57fe5b046011600060108481548110610d9057fe5b60009182526020808320909101546001600160a01b03168352820192909252604001902080549091019055600101610d4f565b50600a546001600160a01b0316600090815260116020526040812055565b60008060005b600c5460001901811015610ebe57600c8160010181548110610e0557fe5b9060005260206000200154600c8281548110610e1d57fe5b90600052602060002001541115610e705782600c8281548110610e3c57fe5b90600052602060002001541115610e6b57600c8181548110610e5a57fe5b906000526020600020015492508091505b610eb6565b82600c8260010181548110610e8157fe5b90600052602060002001541115610eb657600c8160010181548110610ea257fe5b906000526020600020015492508060010191505b600101610de7565b5060098181548110610ecc57fe5b6000918252602080832090910154600a546001600160a01b03908116845260119092526040808420549051929091169281156108fc029290818181858888f19350505050158015610f21573d6000803e3d6000fd5b505050565b600d5481565b600b818154811061077057fe5b60005b60095460ff82161015610be25760005b6012600060098460ff1681548110610f6057fe5b60009182526020808320909101546001600160a01b0316835282019290925260400190205460ff821610156111305760ff811661105d576012600060098460ff1681548110610fab57fe5b60009182526020808320909101546001600160a01b031683528201929092526040019020805460ff8316908110610fde57fe5b9060005260206000200154600c8360ff1681548110610ff957fe5b90600052602060002001819055507fe87559bd68d91949aba8540903f38296d82d38ac0d9d687104cecd37448c8aaf600c8360ff168154811061103857fe5b90600052602060002001546040518082815260200191505060405180910390a1611128565b6012600060098460ff168154811061107157fe5b60009182526020808320909101546001600160a01b031683528201929092526040019020805460ff83169081106110a457fe5b9060005260206000200154600c8360ff16815481106110bf57fe5b90600052602060002001600082825403925050819055507fe87559bd68d91949aba8540903f38296d82d38ac0d9d687104cecd37448c8aaf600c8360ff168154811061110757fe5b90600052602060002001546040518082815260200191505060405180910390a15b600101610f4c565b50600101610f3c565b600f818154811061045457fe5b61114e61193e565b61115661193e565b611162818686866113df565b95945050505050565b608083015161117a908361141c565b6080830151610f21908261141c565b6080830151611198908361141c565b6080830151610f219082611433565b6004546040805130606090811b60208084019190915260348084018690528451808503909101815260549093018452825192810192909220908601939093526000838152600590915281812080546001600160a01b0319166001600160a01b038816179055905182917fb5e6e01e79f91267dc17b4e6314d5d4d03593d2ceee0fbb452b750bd70ea5af991a26002546001600160a01b0316634000aea0858461124f87611492565b6040518463ffffffff1660e01b815260040180846001600160a01b0316815260200183815260200180602001828103825283818151815260200191508051906020019080838360005b838110156112b0578181015183820152602001611298565b50505050905090810190601f1680156112dd5780820380516001836020036101000a031916815260200191505b50945050505050602060405180830381600087803b1580156112fe57600080fd5b505af1158015611312573d6000803e3d6000fd5b505050506040513d602081101561132857600080fd5b50516113655760405162461bcd60e51b81526004018080602001828103825260238152602001806119cb6023913960400191505060405180910390fd5b6004805460010190559392505050565b6002546001600160a01b031690565b60005b600c5461ffff821610156113c357600c8161ffff16815481106113a657fe5b600091825260209091200154600d80549091019055600101611387565b50600c54600d80546000908390816113d757fe5b049091555050565b6113e761193e565b6113f785608001516101006115b6565b50509183526001600160a01b031660208301526001600160e01b031916604082015290565b61142982600383516115f6565b610f2182826116d0565b67ffffffffffffffff198112156114535761144e82826116f1565b61148e565b67ffffffffffffffff81131561146d5761144e828261172a565b600081126114815761144e826000836115f6565b61148e82600183196115f6565b5050565b6060634042994660e01b6000808460000151856020015186604001518760600151600189608001516000015160405160240180896001600160a01b03168152602001888152602001878152602001866001600160a01b03168152602001856001600160e01b031916815260200184815260200183815260200180602001828103825283818151815260200191508051906020019080838360005b8381101561154457818101518382015260200161152c565b50505050905090810190601f1680156115715780820380516001836020036101000a031916815260200191505b5060408051601f198184030181529190526020810180516001600160e01b03166001600160e01b0319909d169c909c17909b5250989950505050505050505050919050565b6115be611973565b60208206156115d35760208206602003820191505b506020808301829052604080518085526000815283019091019052815b92915050565b60178111611617576116118360e0600585901b16831761175f565b50610f21565b60ff811161164157611634836018611fe0600586901b161761175f565b5061161183826001611777565b61ffff811161166c5761165f836019611fe0600586901b161761175f565b5061161183826002611777565b63ffffffff81116116995761168c83601a611fe0600586901b161761175f565b5061161183826004611777565b67ffffffffffffffff8111610f21576116bd83601b611fe0600586901b161761175f565b506116ca83826008611777565b50505050565b6116d8611973565b6116ea83846000015151848551611790565b9392505050565b6116fc8260c361175f565b5061148e8282600019036040516020018082815260200191505060405160208183030381529060405261183c565b6117358260c261175f565b5061148e82826040516020018082815260200191505060405160208183030381529060405261183c565b611767611973565b6116ea8384600001515184611849565b61177f611973565b610a68848560000151518585611894565b611798611973565b82518211156117a657600080fd5b846020015182850111156117d0576117d0856117c887602001518786016118f2565b600202611909565b6000808651805187602083010193508088870111156117ef5787860182525b505050602084015b602084106118165780518252601f1990930192602091820191016117f7565b51815160001960208690036101000a019081169019919091161790525083949350505050565b61142982600283516115f6565b611851611973565b8360200151831061186d5761186d848560200151600202611909565b83518051602085830101848153508085141561188a576001810182525b5093949350505050565b61189c611973565b846020015184830111156118b9576118b985858401600202611909565b60006001836101000a0390508551838682010185831982511617815250805184870111156118e75783860181525b509495945050505050565b6000818311156119035750816115f0565b50919050565b815161191583836115b6565b506116ca83826116d0565b5080546000825590600052602060002090810190610be2919061198d565b6040805160a08101825260008082526020820181905291810182905260608101919091526080810161196e611973565b905290565b604051806040016040528060608152602001600081525090565b5b808211156119a2576000815560010161198e565b509056fe5374616b696e6720616d6f756e74206d75737420626520686967686572207468616e2030756e61626c6520746f207472616e73666572416e6443616c6c20746f206f7261636c65536f75726365206d75737420626520746865206f7261636c65206f66207468652072657175657374a2646970667358221220570580d162ee5e1934a5dad12ca16862c12c797a9a7861674c7e8bee873475b164736f6c634300060c0033",
  "linkReferences": {},
  "deployedLinkReferences": {}
}