{"address":"0x93D9c67B85ab0ca7611Ed89a427b063106d776e3","bytecode":"0x608060405260016004556000601055601480546001600160a01b031990811673f8ac10e65f2073460aad5f28e1eabe807dc287cf179091556015805482167387b1f4cf9bd63f7bbd3ee1ad04e8f525403493471790556016805490911673d0a1e359811322d97991e03f863a0c30c2cf029c1790553480156200008157600080fd5b506200008c620000e8565b600680546001600160a01b03191673aa1dc356dc4b18f30c347798fd5379f3d77abc5b1790557f633764643732636131346234346630633962366366636434623765633061326360075567016345785d8a000060085562000192565b6200016e73c89bd4e1632d3a43cb03aaad5262cbe4038bc5716001600160a01b03166338cc48316040518163ffffffff1660e01b815260040160206040518083038186803b1580156200013a57600080fd5b505afa1580156200014f573d6000803e3d6000fd5b505050506040513d60208110156200016657600080fd5b505162000170565b565b600280546001600160a01b0319166001600160a01b0392909216919091179055565b611d6480620001a26000396000f3fe6080604052600436106101355760003560e01c80638dc654a2116100ab578063bb4772e51161006f578063bb4772e514610434578063c205240314610449578063c7bef65d1461045e578063cd4d32e814610473578063ed6c29aa14610488578063f4d638df1461049d57610135565b80638dc654a2146103b657806393d199eb146103cb578063944d7b55146103e0578063a2c04893146103f5578063aa4dea001461040a57610135565b80634819c632116100fd5780634819c6321461024657806352f1e589146102705780635b4b73a9146102855780635e1a6c17146102af5780635f956d1a146102d957806361598c711461038c57610135565b8063196a4b841461013a5780633094cb74146101805780633a4b66f1146101a75780633bc5de30146101b15780634357855e14610216575b600080fd5b34801561014657600080fd5b506101646004803603602081101561015d57600080fd5b50356104c7565b604080516001600160a01b039092168252519081900360200190f35b34801561018c57600080fd5b506101956104ee565b60408051918252519081900360200190f35b6101af6104f4565b005b3480156101bd57600080fd5b506101c661070c565b60408051602080825283518183015283519192839290830191858101910280838360005b838110156102025781810151838201526020016101ea565b505050509050019250505060405180910390f35b34801561022257600080fd5b506101af6004803603604081101561023957600080fd5b508035906020013561076d565b34801561025257600080fd5b506101956004803603602081101561026957600080fd5b5035610870565b34801561027c57600080fd5b506101af61088e565b34801561029157600080fd5b506101af600480360360208110156102a857600080fd5b5035610993565b3480156102bb57600080fd5b50610164600480360360208110156102d257600080fd5b50356109e3565b3480156102e557600080fd5b50610195600480360360208110156102fc57600080fd5b81019060208101813564010000000081111561031757600080fd5b82018360208201111561032957600080fd5b8035906020019184600183028401116401000000008311171561034b57600080fd5b91908080601f0160208091040260200160405190810160405280939291908181526020018383808284376000920191909152509295506109f0945050505050565b34801561039857600080fd5b50610164600480360360208110156103af57600080fd5b5035610b7d565b3480156103c257600080fd5b506101af610b8a565b3480156103d757600080fd5b506101af610ce3565b3480156103ec57600080fd5b50610195610dbb565b34801561040157600080fd5b506101af610dc1565b34801561041657600080fd5b506101956004803603602081101561042d57600080fd5b5035610eed565b34801561044057600080fd5b506101af610efa565b34801561045557600080fd5b506101af6110d4565b34801561046a57600080fd5b506101af6111f1565b34801561047f57600080fd5b506101af61133a565b34801561049457600080fd5b506101956113d5565b3480156104a957600080fd5b50610164600480360360208110156104c057600080fd5b5035611451565b600f81815481106104d457fe5b6000918252602090912001546001600160a01b0316905081565b60105481565b600034116105335760405162461bcd60e51b8152600401808060200182810382526024815260200180611cc06024913960400191505060405180910390fd5b336000818152601360209081526040808320805460ff191660019081179091556009805491820181559093527f6e1540171b6c0c960b71a7020d9f60077f6af931a8bbf590da0223dacf75c7af90920180546001600160a01b03191690931790925560155481516370a0823160e01b815230600482015291516001600160a01b0391909116926370a082319260248082019391829003018186803b1580156105da57600080fd5b505afa1580156105ee573d6000803e3d6000fd5b505050506040513d602081101561060457600080fd5b5051601055601454604080516358c22be760e01b815230600482015260006024820181905291516001600160a01b03909316926358c22be79234926044808201939182900301818588803b15801561065b57600080fd5b505af115801561066f573d6000803e3d6000fd5b5050601054601554604080516370a0823160e01b815230600482015290519295506001600160a01b0390911693506370a082319250602480820192602092909190829003018186803b1580156106c457600080fd5b505afa1580156106d8573d6000803e3d6000fd5b505050506040513d60208110156106ee57600080fd5b50513360009081526011602052604090208054929091039091019055565b3360009081526012602090815260409182902080548351818402810184019094528084526060939283018282801561076357602002820191906000526020600020905b81548152602001906001019080831161074f575b5050505050905090565b60008281526005602052604090205482906001600160a01b031633146107c45760405162461bcd60e51b8152600401808060200182810382526028815260200180611d076028913960400191505060405180910390fd5b60008181526005602052604080822080546001600160a01b03191690555182917f7cc135e0cebb02c3480ae5d74d377283180a2601f8f644edf7987b009316c63a91a250600a805460018181019092557fc65a7bb8d6351c1cf70c95a316cc6a92839c986682d98bc35f958f4883f9d2a80191909155600b8054918201815560009081527f0175b7a638427703f0dbe7bb9bbf987a2551717b34e79f33b5b1008d1fa01db99091015550565b600b818154811061087d57fe5b600091825260209091200154905081565b600a54600d541461089e57600080fd5b60005b600d548110156109785760126000600d83815481106108bc57fe5b60009182526020808320909101546001600160a01b031683528201929092526040019020600a8054839081106108ee57fe5b60009182526020808320909101548354600181018555938352912090910155600a80548290811061091b57fe5b9060005260206000200154600d828154811061093357fe5b60009182526020822001546040516001600160a01b03909116917fcef9fc88e225fa1bbbecae68d6213c09e5033a0eeafe4afccd9709a9435c98fb91a36001016108a1565b50610985600d6000611c39565b610991600a6000611c39565b565b3360008181526012602090815260408083208054600181018255908452918320909101849055518392917f10d7325afad389b2d1513a84eb27416d3f7cae3ddac7bc0cd24d7f4f1a00685191a350565b600d81815481106104d457fe5b3360009081526013602052604081205460ff16610a43576040805162461bcd60e51b815260206004820152600c60248201526b2737ba10309039ba30b5b2b960a11b604482015290519081900360640190fd5b600d80546001810182556000919091527fd7b6990105719101dabeb77144f2a3385c8033acd3af97e9423a695e81ad1eb50180546001600160a01b03191633179055610a8d611c57565b600754610aa290306321abc2af60e11b61145e565b60408051808201909152600381526219d95d60ea1b6020820152909150610acb90829085611483565b610b28604051806040016040528060048152602001630e0c2e8d60e31b815250604051806040016040528060148152602001736c6973742e302e636f6d706f6e656e74732e636f60601b815250836114839092919063ffffffff16565b60408051808201909152600581526474696d657360d81b6020820152670de0b6b3a764000090610b5a908390836114a6565b600654600854610b75916001600160a01b03169084906114c4565b949350505050565b600981815481106104d457fe5b6000610b94611692565b9050806001600160a01b031663a9059cbb33836001600160a01b03166370a08231306040518263ffffffff1660e01b815260040180826001600160a01b0316815260200191505060206040518083038186803b158015610bf357600080fd5b505afa158015610c07573d6000803e3d6000fd5b505050506040513d6020811015610c1d57600080fd5b5051604080516001600160e01b031960e086901b1681526001600160a01b03909316600484015260248301919091525160448083019260209291908290030181600087803b158015610c6e57600080fd5b505af1158015610c82573d6000803e3d6000fd5b505050506040513d6020811015610c9857600080fd5b5051610ce0576040805162461bcd60e51b81526020600482015260126024820152712ab730b13632903a37903a3930b739b332b960711b604482015290519081900360640190fd5b50565b610ceb6116a1565b60005b600b54811015610ce057600c54600b8281548110610d0857fe5b90600052602060002001541115610d6857600f60098281548110610d2857fe5b60009182526020808320909101548354600181018555938352912090910180546001600160a01b0319166001600160a01b03909216919091179055610db3565b600e60098281548110610d7757fe5b60009182526020808320909101548354600181018555938352912090910180546001600160a01b0319166001600160a01b039092169190911790555b600101610cee565b600c5481565b6015546040805163095ea7b360e01b815273f8ac10e65f2073460aad5f28e1eabe807dc287cf6004820152600019602482015290516001600160a01b039092169163095ea7b3916044808201926020929091908290030181600087803b158015610e2a57600080fd5b505af1158015610e3e573d6000803e3d6000fd5b505050506040513d6020811015610e5457600080fd5b50506016546040805163095ea7b360e01b815273f8ac10e65f2073460aad5f28e1eabe807dc287cf6004820152600019602482015290516001600160a01b039092169163095ea7b3916044808201926020929091908290030181600087803b158015610ebf57600080fd5b505af1158015610ed3573d6000803e3d6000fd5b505050506040513d6020811015610ee957600080fd5b5050565b600a818154811061087d57fe5b60005b600954811015610ce05760005b6012600060098481548110610f1b57fe5b60009182526020808320909101546001600160a01b031683528201929092526040019020548110156110cb578061100457600b6012600060098581548110610f5f57fe5b60009182526020808320909101546001600160a01b031683528201929092526040019020805483908110610f8f57fe5b60009182526020808320909101548354600181018555938352912090910155600b80547fe87559bd68d91949aba8540903f38296d82d38ac0d9d687104cecd37448c8aaf919084908110610fdf57fe5b90600052602060002001546040518082815260200191505060405180910390a16110c3565b601260006009848154811061101557fe5b60009182526020808320909101546001600160a01b03168352820192909252604001902080548290811061104557fe5b9060005260206000200154600b838154811061105d57fe5b90600052602060002001600082825403925050819055507fe87559bd68d91949aba8540903f38296d82d38ac0d9d687104cecd37448c8aaf600b83815481106110a257fe5b90600052602060002001546040518082815260200191505060405180910390a15b600101610f0a565b50600101610efd565b60005b600f54811015610ce057336001600160a01b0316600f82815481106110f857fe5b6000918252602090912001546001600160a01b031614156111e957600f54306000908152601160205260409020548161112d57fe5b33600081815260116020526040808220805495909404909401928390556014548451631b08c5a960e11b81526004810194909452602484019290925292516001600160a01b03909116926336118b52926044808201939182900301818387803b15801561119957600080fd5b505af11580156111ad573d6000803e3d6000fd5b5050600f54306000908152601160205260409020549092509050816111ce57fe5b30600090815260116020526040902080549290910490910390555b6001016110d7565b60098054600181810183557f6e1540171b6c0c960b71a7020d9f60077f6af931a8bbf590da0223dacf75c7af91820180546001600160a01b031990811673d8631e88f5a330faf7424def118a389e8405895c17909155835480830190945592909101805490921673497f35b5a2859343cdaa98aedb7605b2c46136d71790915560126020527fa63d50593a9f2d28784201546df2269b484f93965be799d7b91efe8b374b63aa8054808301825560647f6255b8012d5313325fa81cd2a413068816ad5d10d683a020e60dcfca85d972d79182018190558254808501909355603292909101919091557ffe8d6ea8e6ae634106c2dfe6253476c728fd6c8430fb19502e28853f0bda05bf805480840182557f4936ef248d4ca473a122a820ab669efcd6901bad2fd4a840dc188f3673ee29f890810192909255805492830181556000526050910155565b60005b600e54811015610ce05760116000600e838154811061135857fe5b60009182526020808320909101546001600160a01b031683528281019390935260409182018120543082526011938490529181208054909201909155600e8054919291839190859081106113a857fe5b60009182526020808320909101546001600160a01b0316835282019290925260400190205560010161133d565b601554604080516370a0823160e01b815230600482015290516000926001600160a01b0316916370a08231916024808301926020929190829003018186803b15801561142057600080fd5b505afa158015611434573d6000803e3d6000fd5b505050506040513d602081101561144a57600080fd5b5051905090565b600e81815481106104d457fe5b611466611c57565b61146e611c57565b61147a818686866116fc565b95945050505050565b60808301516114929083611739565b60808301516114a19082611739565b505050565b60808301516114b59083611739565b60808301516114a19082611750565b6004546040805130606090811b60208084019190915260348084018690528451808503909101815260549093018452825192810192909220908601939093526000838152600590915281812080546001600160a01b0319166001600160a01b038816179055905182917fb5e6e01e79f91267dc17b4e6314d5d4d03593d2ceee0fbb452b750bd70ea5af991a26002546001600160a01b0316634000aea0858461156c876117ab565b6040518463ffffffff1660e01b815260040180846001600160a01b0316815260200183815260200180602001828103825283818151815260200191508051906020019080838360005b838110156115cd5781810151838201526020016115b5565b50505050905090810190601f1680156115fa5780820380516001836020036101000a031916815260200191505b50945050505050602060405180830381600087803b15801561161b57600080fd5b505af115801561162f573d6000803e3d6000fd5b505050506040513d602081101561164557600080fd5b50516116825760405162461bcd60e51b8152600401808060200182810382526023815260200180611ce46023913960400191505060405180910390fd5b6004805460010190559392505050565b6002546001600160a01b031690565b60005b600b5461ffff821610156116e057600b8161ffff16815481106116c357fe5b600091825260209091200154600c805490910190556001016116a4565b50600b54600c80546000908390816116f457fe5b049091555050565b611704611c57565b61171485608001516101006118cf565b50509183526001600160a01b031660208301526001600160e01b031916604082015290565b611746826003835161190f565b6114a182826119e9565b67ffffffffffffffff198112156117705761176b8282611a0a565b610ee9565b67ffffffffffffffff81131561178a5761176b8282611a43565b6000811261179e5761176b8260008361190f565b610ee9826001831961190f565b6060634042994660e01b6000808460000151856020015186604001518760600151600189608001516000015160405160240180896001600160a01b03168152602001888152602001878152602001866001600160a01b03168152602001856001600160e01b031916815260200184815260200183815260200180602001828103825283818151815260200191508051906020019080838360005b8381101561185d578181015183820152602001611845565b50505050905090810190601f16801561188a5780820380516001836020036101000a031916815260200191505b5060408051601f198184030181529190526020810180516001600160e01b03166001600160e01b0319909d169c909c17909b5250989950505050505050505050919050565b6118d7611c8c565b60208206156118ec5760208206602003820191505b506020808301829052604080518085526000815283019091019052815b92915050565b601781116119305761192a8360e0600585901b168317611a78565b506114a1565b60ff811161195a5761194d836018611fe0600586901b1617611a78565b5061192a83826001611a90565b61ffff811161198557611978836019611fe0600586901b1617611a78565b5061192a83826002611a90565b63ffffffff81116119b2576119a583601a611fe0600586901b1617611a78565b5061192a83826004611a90565b67ffffffffffffffff81116114a1576119d683601b611fe0600586901b1617611a78565b506119e383826008611a90565b50505050565b6119f1611c8c565b611a0383846000015151848551611aa9565b9392505050565b611a158260c3611a78565b50610ee982826000190360405160200180828152602001915050604051602081830303815290604052611b55565b611a4e8260c2611a78565b50610ee9828260405160200180828152602001915050604051602081830303815290604052611b55565b611a80611c8c565b611a038384600001515184611b62565b611a98611c8c565b610b75848560000151518585611bad565b611ab1611c8c565b8251821115611abf57600080fd5b84602001518285011115611ae957611ae985611ae18760200151878601611c0b565b600202611c22565b600080865180518760208301019350808887011115611b085787860182525b505050602084015b60208410611b2f5780518252601f199093019260209182019101611b10565b51815160001960208690036101000a019081169019919091161790525083949350505050565b611746826002835161190f565b611b6a611c8c565b83602001518310611b8657611b86848560200151600202611c22565b835180516020858301018481535080851415611ba3576001810182525b5093949350505050565b611bb5611c8c565b84602001518483011115611bd257611bd285858401600202611c22565b60006001836101000a039050855183868201018583198251161781525080518487011115611c005783860181525b509495945050505050565b600081831115611c1c575081611909565b50919050565b8151611c2e83836118cf565b506119e383826119e9565b5080546000825590600052602060002090810190610ce09190611ca6565b6040805160a081018252600080825260208201819052918101829052606081019190915260808101611c87611c8c565b905290565b604051806040016040528060608152602001600081525090565b5b80821115611cbb5760008155600101611ca7565b509056fe5374616b696e6720616d6f756e74206d75737420626520686967686572207468616e2030756e61626c6520746f207472616e73666572416e6443616c6c20746f206f7261636c65536f75726365206d75737420626520746865206f7261636c65206f66207468652072657175657374a2646970667358221220ff1915ed0c3429347efda464babf890b8400346309b38b88b8c2963d2e68900d64736f6c634300060c0033","abi":[{"inputs":[],"stateMutability":"nonpayable","type":"constructor"},{"anonymous":false,"inputs":[{"indexed":true,"internalType":"bytes32","name":"id","type":"bytes32"}],"name":"ChainlinkCancelled","type":"event"},{"anonymous":false,"inputs":[{"indexed":true,"internalType":"bytes32","name":"id","type":"bytes32"}],"name":"ChainlinkFulfilled","type":"event"},{"anonymous":false,"inputs":[{"indexed":true,"internalType":"bytes32","name":"id","type":"bytes32"}],"name":"ChainlinkRequested","type":"event"},{"anonymous":false,"inputs":[{"indexed":false,"internalType":"uint256","name":"_relChange","type":"uint256"}],"name":"GetRelChange","type":"event"},{"anonymous":false,"inputs":[{"indexed":false,"internalType":"address","name":"_winner","type":"address"},{"indexed":false,"internalType":"uint256","name":"_amount","type":"uint256"}],"name":"PayoutTo","type":"event"},{"anonymous":false,"inputs":[{"indexed":true,"internalType":"address","name":"_requester","type":"address"},{"indexed":true,"internalType":"uint256","name":"_oracleData","type":"uint256"}],"name":"RequesterToData","type":"event"},{"anonymous":false,"inputs":[{"indexed":true,"internalType":"address","name":"_requester","type":"address"},{"indexed":true,"internalType":"uint256","name":"_data","type":"uint256"}],"name":"SetData","type":"event"},{"inputs":[],"name":"RewardPenalize","outputs":[],"stateMutability":"nonpayable","type":"function"},{"inputs":[],"name":"aWethBalance","outputs":[{"internalType":"uint256","name":"","type":"uint256"}],"stateMutability":"view","type":"function"},{"inputs":[],"name":"approveERC20s","outputs":[],"stateMutability":"nonpayable","type":"function"},{"inputs":[],"name":"averageRelGHGV","outputs":[{"internalType":"uint256","name":"","type":"uint256"}],"stateMutability":"view","type":"function"},{"inputs":[{"internalType":"bytes32","name":"_requestId","type":"bytes32"},{"internalType":"uint256","name":"_data","type":"uint256"}],"name":"fulfill","outputs":[],"stateMutability":"nonpayable","type":"function"},{"inputs":[],"name":"getData","outputs":[{"internalType":"uint256[]","name":"","type":"uint256[]"}],"stateMutability":"view","type":"function"},{"inputs":[],"name":"getRelChange","outputs":[],"stateMutability":"nonpayable","type":"function"},{"inputs":[],"name":"lastAWETHBalance","outputs":[{"internalType":"uint256","name":"","type":"uint256"}],"stateMutability":"view","type":"function"},{"inputs":[{"internalType":"uint256","name":"","type":"uint256"}],"name":"oracleData","outputs":[{"internalType":"uint256","name":"","type":"uint256"}],"stateMutability":"view","type":"function"},{"inputs":[],"name":"payOut","outputs":[],"stateMutability":"nonpayable","type":"function"},{"inputs":[],"name":"penalize","outputs":[],"stateMutability":"nonpayable","type":"function"},{"inputs":[{"internalType":"uint256","name":"","type":"uint256"}],"name":"penalized","outputs":[{"internalType":"address","name":"","type":"address"}],"stateMutability":"view","type":"function"},{"inputs":[],"name":"prepareData","outputs":[],"stateMutability":"nonpayable","type":"function"},{"inputs":[{"internalType":"uint256","name":"","type":"uint256"}],"name":"relativeGHG","outputs":[{"internalType":"uint256","name":"","type":"uint256"}],"stateMutability":"view","type":"function"},{"inputs":[{"internalType":"string","name":"_API","type":"string"}],"name":"requestVolumeData","outputs":[{"internalType":"bytes32","name":"requestId","type":"bytes32"}],"stateMutability":"nonpayable","type":"function"},{"inputs":[],"name":"requesterToData","outputs":[],"stateMutability":"nonpayable","type":"function"},{"inputs":[{"internalType":"uint256","name":"","type":"uint256"}],"name":"requesters","outputs":[{"internalType":"address","name":"","type":"address"}],"stateMutability":"view","type":"function"},{"inputs":[{"internalType":"uint256","name":"","type":"uint256"}],"name":"rewarded","outputs":[{"internalType":"address","name":"","type":"address"}],"stateMutability":"view","type":"function"},{"inputs":[{"internalType":"uint256","name":"_data","type":"uint256"}],"name":"setData","outputs":[],"stateMutability":"nonpayable","type":"function"},{"inputs":[],"name":"stake","outputs":[],"stateMutability":"payable","type":"function"},{"inputs":[{"internalType":"uint256","name":"","type":"uint256"}],"name":"stakerReg","outputs":[{"internalType":"address payable","name":"","type":"address"}],"stateMutability":"view","type":"function"},{"inputs":[],"name":"withdrawLink","outputs":[],"stateMutability":"nonpayable","type":"function"}]}