{"address":"0x0238Ab193dFebf55bA84Cd7048b9177e9FB1dDc0","bytecode":"0x6080604052600160045534801561001557600080fd5b506100276001600160e01b0361008216565b600780546001600160a01b03191673aa1dc356dc4b18f30c347798fd5379f3d77abc5b1790557f633764643732636131346234346630633962366366636434623765633061326360085567016345785d8a0000600955610130565b61010c73c89bd4e1632d3a43cb03aaad5262cbe4038bc5716001600160a01b03166338cc48316040518163ffffffff1660e01b815260040160206040518083038186803b1580156100d257600080fd5b505afa1580156100e6573d6000803e3d6000fd5b505050506040513d60208110156100fc57600080fd5b50516001600160e01b0361010e16565b565b600280546001600160a01b0319166001600160a01b0392909216919091179055565b610d0f8061013f6000396000f3fe608060405234801561001057600080fd5b506004361061004c5760003560e01c80634357855e146100515780636021abac146100765780638dc654a214610090578063c618a1e414610098575b600080fd5b6100746004803603604081101561006757600080fd5b50803590602001356100a0565b005b61007e610141565b60408051918252519081900360200190f35b61007461025f565b61007e6103ac565b60008281526005602052604090205482906001600160a01b031633146100f75760405162461bcd60e51b8152600401808060200182810382526028815260200180610c3c6028913960400191505060405180910390fd5b60008181526005602052604080822080546001600160a01b03191690555182917f7cc135e0cebb02c3480ae5d74d377283180a2601f8f644edf7987b009316c63a91a25060065550565b600061014b610bc9565b60085461016090306321abc2af60e11b6103b2565b90506101a86040518060400160405280600381526020016219d95d60ea1b8152506040518060a0016040528060768152602001610c646076913983919063ffffffff6103dd16565b610205604051806040016040528060048152602001630e0c2e8d60e31b815250604051806040016040528060148152602001736c6973742e302e636f6d706f6e656e74732e636f60601b815250836103dd9092919063ffffffff16565b60408051808201909152600581526474696d657360d81b6020820152670de0b6b3a76400009061023d9083908363ffffffff61040c16565b600754600954610258916001600160a01b0316908490610436565b9250505090565b600061026961060d565b604080516370a0823160e01b815230600482015290519192506001600160a01b0383169163a9059cbb91339184916370a08231916024808301926020929190829003018186803b1580156102bc57600080fd5b505afa1580156102d0573d6000803e3d6000fd5b505050506040513d60208110156102e657600080fd5b5051604080516001600160e01b031960e086901b1681526001600160a01b03909316600484015260248301919091525160448083019260209291908290030181600087803b15801561033757600080fd5b505af115801561034b573d6000803e3d6000fd5b505050506040513d602081101561036157600080fd5b50516103a9576040805162461bcd60e51b81526020600482015260126024820152712ab730b13632903a37903a3930b739b332b960711b604482015290519081900360640190fd5b50565b60065481565b6103ba610bc9565b6103c2610bc9565b6103d48186868663ffffffff61061c16565b95945050505050565b60808301516103f2908363ffffffff61065916565b6080830151610407908263ffffffff61065916565b505050565b6080830151610421908363ffffffff61065916565b6080830151610407908263ffffffff61067616565b6004546040805130606090811b60208084019190915260348084018690528451808503909101815260549093018452825192810192909220908601939093526000838152600590915281812080546001600160a01b0319166001600160a01b038816179055905182917fb5e6e01e79f91267dc17b4e6314d5d4d03593d2ceee0fbb452b750bd70ea5af991a26002546001600160a01b0316634000aea085846104de876106d5565b6040518463ffffffff1660e01b815260040180846001600160a01b03166001600160a01b0316815260200183815260200180602001828103825283818151815260200191508051906020019080838360005b83811015610548578181015183820152602001610530565b50505050905090810190601f1680156105755780820380516001836020036101000a031916815260200191505b50945050505050602060405180830381600087803b15801561059657600080fd5b505af11580156105aa573d6000803e3d6000fd5b505050506040513d60208110156105c057600080fd5b50516105fd5760405162461bcd60e51b8152600401808060200182810382526023815260200180610c196023913960400191505060405180910390fd5b6004805460010190559392505050565b6002546001600160a01b031690565b610624610bc9565b6106348560800151610100610815565b50509183526001600160a01b031660208301526001600160e01b031916604082015290565b6106668260038351610855565b610407828263ffffffff61096516565b67ffffffffffffffff19811215610696576106918282610986565b6106d1565b67ffffffffffffffff8113156106b05761069182826109c5565b600081126106c45761069182600083610855565b6106d18260018319610855565b5050565b6060634042994660e01b6000808460000151856020015186604001518760600151600189608001516000015160405160240180896001600160a01b03166001600160a01b03168152602001888152602001878152602001866001600160a01b03166001600160a01b03168152602001856001600160e01b0319166001600160e01b031916815260200184815260200183815260200180602001828103825283818151815260200191508051906020019080838360005b838110156107a357818101518382015260200161078b565b50505050905090810190601f1680156107d05780820380516001836020036101000a031916815260200191505b5060408051601f198184030181529190526020810180516001600160e01b03166001600160e01b0319909d169c909c17909b5250989950505050505050505050919050565b61081d610bfe565b60208206156108325760208206602003820191505b506020808301829052604080518085526000815283019091019052815b92915050565b6017811161087c576108768360e0600585901b16831763ffffffff610a0016565b50610407565b60ff81116108b25761089f836018611fe0600586901b161763ffffffff610a0016565b506108768382600163ffffffff610a1816565b61ffff81116108e9576108d6836019611fe0600586901b161763ffffffff610a0016565b506108768382600263ffffffff610a1816565b63ffffffff81116109225761090f83601a611fe0600586901b161763ffffffff610a0016565b506108768382600463ffffffff610a1816565b67ffffffffffffffff81116104075761094c83601b611fe0600586901b161763ffffffff610a0016565b5061095f8382600863ffffffff610a1816565b50505050565b61096d610bfe565b61097f83846000015151848551610a39565b9392505050565b6109978260c363ffffffff610a0016565b506106d182826000190360405160200180828152602001915050604051602081830303815290604052610ae5565b6109d68260c263ffffffff610a0016565b506106d1828260405160200180828152602001915050604051602081830303815290604052610ae5565b610a08610bfe565b61097f8384600001515184610af2565b610a20610bfe565b610a31848560000151518585610b3d565b949350505050565b610a41610bfe565b8251821115610a4f57600080fd5b84602001518285011115610a7957610a7985610a718760200151878601610b9b565b600202610bb2565b600080865180518760208301019350808887011115610a985787860182525b505050602084015b60208410610abf5780518252601f199093019260209182019101610aa0565b51815160001960208690036101000a019081169019919091161790525083949350505050565b6106668260028351610855565b610afa610bfe565b83602001518310610b1657610b16848560200151600202610bb2565b835180516020858301018481535080851415610b33576001810182525b5093949350505050565b610b45610bfe565b84602001518483011115610b6257610b6285858401600202610bb2565b60006001836101000a039050855183868201018583198251161781525080518487011115610b905783860181525b509495945050505050565b600081831115610bac57508161084f565b50919050565b8151610bbe8383610815565b5061095f8382610965565b6040805160a081018252600080825260208201819052918101829052606081019190915260808101610bf9610bfe565b905290565b60405180604001604052806060815260200160008152509056fe756e61626c6520746f207472616e73666572416e6443616c6c20746f206f7261636c65536f75726365206d75737420626520746865206f7261636c65206f6620746865207265717565737468747470733a2f2f6170692e6f70656e776561746865726d61702e6f72672f646174612f322e352f6169725f706f6c6c7574696f6e3f6c61743d33392e32353936266c6f6e3d2d3131392e383133382661707069643d6362333061636434356566343539306366363330376134666138393430636237a26469706673582212200c0a0b55fd077e736c8d66a5648819326ef5d0bb91463761f5f10d761215d97664736f6c63430006070033","abi":[{"inputs":[],"stateMutability":"nonpayable","type":"constructor"},{"anonymous":false,"inputs":[{"indexed":true,"internalType":"bytes32","name":"id","type":"bytes32"}],"name":"ChainlinkCancelled","type":"event"},{"anonymous":false,"inputs":[{"indexed":true,"internalType":"bytes32","name":"id","type":"bytes32"}],"name":"ChainlinkFulfilled","type":"event"},{"anonymous":false,"inputs":[{"indexed":true,"internalType":"bytes32","name":"id","type":"bytes32"}],"name":"ChainlinkRequested","type":"event"},{"inputs":[{"internalType":"bytes32","name":"_requestId","type":"bytes32"},{"internalType":"uint256","name":"_volume","type":"uint256"}],"name":"fulfill","outputs":[],"stateMutability":"nonpayable","type":"function"},{"inputs":[],"name":"requestVolumeData","outputs":[{"internalType":"bytes32","name":"requestId","type":"bytes32"}],"stateMutability":"nonpayable","type":"function"},{"inputs":[],"name":"volume","outputs":[{"internalType":"uint256","name":"","type":"uint256"}],"stateMutability":"view","type":"function"},{"inputs":[],"name":"withdrawLink","outputs":[],"stateMutability":"nonpayable","type":"function"}]}