{"address":"0x4B82d07f954CC91355964287235c812B69A7db09","bytecode":"0x60806040526001600455600a80546001600160a01b0319908116735b38da6a701c568545dcfcb03fcb875f56beddc417909155600060115560158054821673f8ac10e65f2073460aad5f28e1eabe807dc287cf1790556016805482167387b1f4cf9bd63f7bbd3ee1ad04e8f525403493471790556017805490911673d0a1e359811322d97991e03f863a0c30c2cf029c1790553480156200009f57600080fd5b50620000aa62000106565b600680546001600160a01b03191673aa1dc356dc4b18f30c347798fd5379f3d77abc5b1790557f633764643732636131346234346630633962366366636434623765633061326360075567016345785d8a0000600855620001b0565b6200018c73c89bd4e1632d3a43cb03aaad5262cbe4038bc5716001600160a01b03166338cc48316040518163ffffffff1660e01b815260040160206040518083038186803b1580156200015857600080fd5b505afa1580156200016d573d6000803e3d6000fd5b505050506040513d60208110156200018457600080fd5b50516200018e565b565b600280546001600160a01b0319166001600160a01b0392909216919091179055565b611d8480620001c06000396000f3fe60806040526004361061011f5760003560e01c806361598c71116100a0578063944d7b5511610064578063944d7b55146103f4578063aa4dea0014610409578063bb4772e514610433578063ed6c29aa14610448578063f4d638df1461045d5761011f565b806361598c71146103765780636e4714e4146103a05780638dc654a2146103b55780638fc813c5146103ca578063933b5912146103df5761011f565b80634819c632116100e75780634819c6321461023057806352f1e5891461025a5780635b4b73a91461026f5780635e1a6c17146102995780635f956d1a146102c35761011f565b8063196a4b84146101245780633094cb741461016a5780633a4b66f1146101915780633bc5de301461019b5780634357855e14610200575b600080fd5b34801561013057600080fd5b5061014e6004803603602081101561014757600080fd5b5035610487565b604080516001600160a01b039092168252519081900360200190f35b34801561017657600080fd5b5061017f6104ae565b60408051918252519081900360200190f35b6101996104b4565b005b3480156101a757600080fd5b506101b06106cc565b60408051602080825283518183015283519192839290830191858101910280838360005b838110156101ec5781810151838201526020016101d4565b505050509050019250505060405180910390f35b34801561020c57600080fd5b506101996004803603604081101561022357600080fd5b508035906020013561072d565b34801561023c57600080fd5b5061017f6004803603602081101561025357600080fd5b5035610830565b34801561026657600080fd5b5061019961084e565b34801561027b57600080fd5b506101996004803603602081101561029257600080fd5b5035610953565b3480156102a557600080fd5b5061014e600480360360208110156102bc57600080fd5b50356109a3565b3480156102cf57600080fd5b5061017f600480360360208110156102e657600080fd5b81019060208101813564010000000081111561030157600080fd5b82018360208201111561031357600080fd5b8035906020019184600183028401116401000000008311171561033557600080fd5b91908080601f0160208091040260200160405190810160405280939291908181526020018383808284376000920191909152509295506109b0945050505050565b34801561038257600080fd5b5061014e6004803603602081101561039957600080fd5b5035610b3d565b3480156103ac57600080fd5b5061014e610b4a565b3480156103c157600080fd5b50610199610b59565b3480156103d657600080fd5b50610199610cb2565b3480156103eb57600080fd5b5061019961109e565b34801561040057600080fd5b5061017f6111e3565b34801561041557600080fd5b5061017f6004803603602081101561042c57600080fd5b50356111e9565b34801561043f57600080fd5b506101996111f6565b34801561045457600080fd5b5061017f6113f6565b34801561046957600080fd5b5061014e6004803603602081101561048057600080fd5b5035611472565b6010818154811061049457fe5b6000918252602090912001546001600160a01b0316905081565b60115481565b600034116104f35760405162461bcd60e51b8152600401808060200182810382526024815260200180611ce06024913960400191505060405180910390fd5b336000818152601460209081526040808320805460ff191660019081179091556009805491820181559093527f6e1540171b6c0c960b71a7020d9f60077f6af931a8bbf590da0223dacf75c7af90920180546001600160a01b03191690931790925560165481516370a0823160e01b815230600482015291516001600160a01b0391909116926370a082319260248082019391829003018186803b15801561059a57600080fd5b505afa1580156105ae573d6000803e3d6000fd5b505050506040513d60208110156105c457600080fd5b5051601155601554604080516358c22be760e01b815230600482015260006024820181905291516001600160a01b03909316926358c22be79234926044808201939182900301818588803b15801561061b57600080fd5b505af115801561062f573d6000803e3d6000fd5b5050601154601654604080516370a0823160e01b815230600482015290519295506001600160a01b0390911693506370a082319250602480820192602092909190829003018186803b15801561068457600080fd5b505afa158015610698573d6000803e3d6000fd5b505050506040513d60208110156106ae57600080fd5b50513360009081526012602052604090208054929091039091019055565b3360009081526013602090815260409182902080548351818402810184019094528084526060939283018282801561072357602002820191906000526020600020905b81548152602001906001019080831161070f575b5050505050905090565b60008281526005602052604090205482906001600160a01b031633146107845760405162461bcd60e51b8152600401808060200182810382526028815260200180611d276028913960400191505060405180910390fd5b60008181526005602052604080822080546001600160a01b03191690555182917f7cc135e0cebb02c3480ae5d74d377283180a2601f8f644edf7987b009316c63a91a250600b805460018181019092557f0175b7a638427703f0dbe7bb9bbf987a2551717b34e79f33b5b1008d1fa01db90191909155600c8054918201815560009081527fdf6966c971051c3d54ec59162606531493a51404a002842f56009d7e5cf4a8c79091015550565b600c818154811061083d57fe5b600091825260209091200154905081565b600b54600e541461085e57600080fd5b60005b600e548110156109385760136000600e838154811061087c57fe5b60009182526020808320909101546001600160a01b031683528201929092526040019020600b8054839081106108ae57fe5b60009182526020808320909101548354600181018555938352912090910155600b8054829081106108db57fe5b9060005260206000200154600e82815481106108f357fe5b60009182526020822001546040516001600160a01b03909116917fcef9fc88e225fa1bbbecae68d6213c09e5033a0eeafe4afccd9709a9435c98fb91a3600101610861565b50610945600e6000611c59565b610951600b6000611c59565b565b3360008181526013602090815260408083208054600181018255908452918320909101849055518392917f10d7325afad389b2d1513a84eb27416d3f7cae3ddac7bc0cd24d7f4f1a00685191a350565b600e818154811061049457fe5b3360009081526014602052604081205460ff16610a03576040805162461bcd60e51b815260206004820152600c60248201526b2737ba10309039ba30b5b2b960a11b604482015290519081900360640190fd5b600e80546001810182556000919091527fbb7b4a454dc3493923482f07822329ed19e8244eff582cc204f8554c3620c3fd0180546001600160a01b03191633179055610a4d611c77565b600754610a6290306321abc2af60e11b61147f565b60408051808201909152600381526219d95d60ea1b6020820152909150610a8b908290856114a4565b610ae8604051806040016040528060048152602001630e0c2e8d60e31b815250604051806040016040528060148152602001736c6973742e302e636f6d706f6e656e74732e636f60601b815250836114a49092919063ffffffff16565b60408051808201909152600581526474696d657360d81b6020820152670de0b6b3a764000090610b1a908390836114c2565b600654600854610b35916001600160a01b03169084906114e0565b949350505050565b6009818154811061049457fe5b600a546001600160a01b031681565b6000610b636116ae565b9050806001600160a01b031663a9059cbb33836001600160a01b03166370a08231306040518263ffffffff1660e01b815260040180826001600160a01b0316815260200191505060206040518083038186803b158015610bc257600080fd5b505afa158015610bd6573d6000803e3d6000fd5b505050506040513d6020811015610bec57600080fd5b5051604080516001600160e01b031960e086901b1681526001600160a01b03909316600484015260248301919091525160448083019260209291908290030181600087803b158015610c3d57600080fd5b505af1158015610c51573d6000803e3d6000fd5b505050506040513d6020811015610c6757600080fd5b5051610caf576040805162461bcd60e51b81526020600482015260126024820152712ab730b13632903a37903a3930b739b332b960711b604482015290519081900360640190fd5b50565b610cba6116bd565b60005b600c54811015610e1857600d54600c8281548110610cd757fe5b90600052602060002001541015610d3757601060098281548110610cf757fe5b60009182526020808320909101548354600181018555938352912090910180546001600160a01b0319166001600160a01b03909216919091179055610e10565b600f60098281548110610d4657fe5b6000918252602080832090910154835460018101855593835290822090920180546001600160a01b0319166001600160a01b0390931692909217909155600f8054601292919084908110610d9657fe5b60009182526020808320909101546001600160a01b039081168452838201949094526040928301822054600a5490941682526012908190529181208054909301909255600f805483919085908110610dea57fe5b60009182526020808320909101546001600160a01b031683528201929092526040019020555b600101610cbd565b5060005b60105481101561108057601054600a546001600160a01b031660009081526012602052604090205481610e4b57fe5b046012600060108481548110610e5d57fe5b60009182526020808320909101546001600160a01b03908116845283820194909452604092830182208054909501909455601654825163095ea7b360e01b815273f8ac10e65f2073460aad5f28e1eabe807dc287cf60048201526000196024820152925193169363095ea7b393604480850194929391928390030190829087803b158015610eea57600080fd5b505af1158015610efe573d6000803e3d6000fd5b505050506040513d6020811015610f1457600080fd5b50506017546040805163095ea7b360e01b815273f8ac10e65f2073460aad5f28e1eabe807dc287cf6004820152600019602482015290516001600160a01b039092169163095ea7b3916044808201926020929091908290030181600087803b158015610f7f57600080fd5b505af1158015610f93573d6000803e3d6000fd5b505050506040513d6020811015610fa957600080fd5b5050601554601080546001600160a01b03909216916336118b52916012916000919086908110610fd557fe5b60009182526020808320909101546001600160a01b03168352820192909252604001902054601080548590811061100857fe5b6000918252602082200154604080516001600160e01b031960e087901b16815260048101949094526001600160a01b0390911660248401525160448084019382900301818387803b15801561105c57600080fd5b505af1158015611070573d6000803e3d6000fd5b505060019092019150610e1c9050565b50600a546001600160a01b0316600090815260126020526040812055565b60008060005b600c546000190181101561117b57600c81600101815481106110c257fe5b9060005260206000200154600c82815481106110da57fe5b9060005260206000200154111561112d5782600c82815481106110f957fe5b9060005260206000200154111561112857600c818154811061111757fe5b906000526020600020015492508091505b611173565b82600c826001018154811061113e57fe5b9060005260206000200154111561117357600c816001018154811061115f57fe5b906000526020600020015492508060010191505b6001016110a4565b506009818154811061118957fe5b6000918252602080832090910154600a546001600160a01b03908116845260129092526040808420549051929091169281156108fc029290818181858888f193505050501580156111de573d6000803e3d6000fd5b505050565b600d5481565b600b818154811061083d57fe5b60005b60095460ff82161015610caf5760005b6013600060098460ff168154811061121d57fe5b60009182526020808320909101546001600160a01b0316835282019290925260400190205460ff821610156113ed5760ff811661131a576013600060098460ff168154811061126857fe5b60009182526020808320909101546001600160a01b031683528201929092526040019020805460ff831690811061129b57fe5b9060005260206000200154600c8360ff16815481106112b657fe5b90600052602060002001819055507fe87559bd68d91949aba8540903f38296d82d38ac0d9d687104cecd37448c8aaf600c8360ff16815481106112f557fe5b90600052602060002001546040518082815260200191505060405180910390a16113e5565b6013600060098460ff168154811061132e57fe5b60009182526020808320909101546001600160a01b031683528201929092526040019020805460ff831690811061136157fe5b9060005260206000200154600c8360ff168154811061137c57fe5b90600052602060002001600082825403925050819055507fe87559bd68d91949aba8540903f38296d82d38ac0d9d687104cecd37448c8aaf600c8360ff16815481106113c457fe5b90600052602060002001546040518082815260200191505060405180910390a15b600101611209565b506001016111f9565b601654604080516370a0823160e01b815230600482015290516000926001600160a01b0316916370a08231916024808301926020929190829003018186803b15801561144157600080fd5b505afa158015611455573d6000803e3d6000fd5b505050506040513d602081101561146b57600080fd5b5051905090565b600f818154811061049457fe5b611487611c77565b61148f611c77565b61149b81868686611718565b95945050505050565b60808301516114b39083611755565b60808301516111de9082611755565b60808301516114d19083611755565b60808301516111de908261176c565b6004546040805130606090811b60208084019190915260348084018690528451808503909101815260549093018452825192810192909220908601939093526000838152600590915281812080546001600160a01b0319166001600160a01b038816179055905182917fb5e6e01e79f91267dc17b4e6314d5d4d03593d2ceee0fbb452b750bd70ea5af991a26002546001600160a01b0316634000aea08584611588876117cb565b6040518463ffffffff1660e01b815260040180846001600160a01b0316815260200183815260200180602001828103825283818151815260200191508051906020019080838360005b838110156115e95781810151838201526020016115d1565b50505050905090810190601f1680156116165780820380516001836020036101000a031916815260200191505b50945050505050602060405180830381600087803b15801561163757600080fd5b505af115801561164b573d6000803e3d6000fd5b505050506040513d602081101561166157600080fd5b505161169e5760405162461bcd60e51b8152600401808060200182810382526023815260200180611d046023913960400191505060405180910390fd5b6004805460010190559392505050565b6002546001600160a01b031690565b60005b600c5461ffff821610156116fc57600c8161ffff16815481106116df57fe5b600091825260209091200154600d805490910190556001016116c0565b50600c54600d805460009083908161171057fe5b049091555050565b611720611c77565b61173085608001516101006118ef565b50509183526001600160a01b031660208301526001600160e01b031916604082015290565b611762826003835161192f565b6111de8282611a09565b67ffffffffffffffff1981121561178c576117878282611a2a565b6117c7565b67ffffffffffffffff8113156117a6576117878282611a63565b600081126117ba576117878260008361192f565b6117c7826001831961192f565b5050565b6060634042994660e01b6000808460000151856020015186604001518760600151600189608001516000015160405160240180896001600160a01b03168152602001888152602001878152602001866001600160a01b03168152602001856001600160e01b031916815260200184815260200183815260200180602001828103825283818151815260200191508051906020019080838360005b8381101561187d578181015183820152602001611865565b50505050905090810190601f1680156118aa5780820380516001836020036101000a031916815260200191505b5060408051601f198184030181529190526020810180516001600160e01b03166001600160e01b0319909d169c909c17909b5250989950505050505050505050919050565b6118f7611cac565b602082061561190c5760208206602003820191505b506020808301829052604080518085526000815283019091019052815b92915050565b601781116119505761194a8360e0600585901b168317611a98565b506111de565b60ff811161197a5761196d836018611fe0600586901b1617611a98565b5061194a83826001611ab0565b61ffff81116119a557611998836019611fe0600586901b1617611a98565b5061194a83826002611ab0565b63ffffffff81116119d2576119c583601a611fe0600586901b1617611a98565b5061194a83826004611ab0565b67ffffffffffffffff81116111de576119f683601b611fe0600586901b1617611a98565b50611a0383826008611ab0565b50505050565b611a11611cac565b611a2383846000015151848551611ac9565b9392505050565b611a358260c3611a98565b506117c782826000190360405160200180828152602001915050604051602081830303815290604052611b75565b611a6e8260c2611a98565b506117c7828260405160200180828152602001915050604051602081830303815290604052611b75565b611aa0611cac565b611a238384600001515184611b82565b611ab8611cac565b610b35848560000151518585611bcd565b611ad1611cac565b8251821115611adf57600080fd5b84602001518285011115611b0957611b0985611b018760200151878601611c2b565b600202611c42565b600080865180518760208301019350808887011115611b285787860182525b505050602084015b60208410611b4f5780518252601f199093019260209182019101611b30565b51815160001960208690036101000a019081169019919091161790525083949350505050565b611762826002835161192f565b611b8a611cac565b83602001518310611ba657611ba6848560200151600202611c42565b835180516020858301018481535080851415611bc3576001810182525b5093949350505050565b611bd5611cac565b84602001518483011115611bf257611bf285858401600202611c42565b60006001836101000a039050855183868201018583198251161781525080518487011115611c205783860181525b509495945050505050565b600081831115611c3c575081611929565b50919050565b8151611c4e83836118ef565b50611a038382611a09565b5080546000825590600052602060002090810190610caf9190611cc6565b6040805160a081018252600080825260208201819052918101829052606081019190915260808101611ca7611cac565b905290565b604051806040016040528060608152602001600081525090565b5b80821115611cdb5760008155600101611cc7565b509056fe5374616b696e6720616d6f756e74206d75737420626520686967686572207468616e2030756e61626c6520746f207472616e73666572416e6443616c6c20746f206f7261636c65536f75726365206d75737420626520746865206f7261636c65206f66207468652072657175657374a2646970667358221220e3ef0c4fae08014b758b8bc096d86b1fa008ee25913e1882a070f6a38aac01b164736f6c634300060c0033","abi":[{"inputs":[],"stateMutability":"nonpayable","type":"constructor"},{"anonymous":false,"inputs":[{"indexed":true,"internalType":"bytes32","name":"id","type":"bytes32"}],"name":"ChainlinkCancelled","type":"event"},{"anonymous":false,"inputs":[{"indexed":true,"internalType":"bytes32","name":"id","type":"bytes32"}],"name":"ChainlinkFulfilled","type":"event"},{"anonymous":false,"inputs":[{"indexed":true,"internalType":"bytes32","name":"id","type":"bytes32"}],"name":"ChainlinkRequested","type":"event"},{"anonymous":false,"inputs":[{"indexed":false,"internalType":"uint256","name":"_relChange","type":"uint256"}],"name":"GetRelChange","type":"event"},{"anonymous":false,"inputs":[{"indexed":false,"internalType":"address","name":"_winner","type":"address"},{"indexed":false,"internalType":"uint256","name":"_amount","type":"uint256"}],"name":"PayoutTo","type":"event"},{"anonymous":false,"inputs":[{"indexed":true,"internalType":"address","name":"_requester","type":"address"},{"indexed":true,"internalType":"uint256","name":"_oracleData","type":"uint256"}],"name":"RequesterToData","type":"event"},{"anonymous":false,"inputs":[{"indexed":true,"internalType":"address","name":"_requester","type":"address"},{"indexed":true,"internalType":"uint256","name":"_data","type":"uint256"}],"name":"SetData","type":"event"},{"inputs":[],"name":"aWethBalance","outputs":[{"internalType":"uint256","name":"","type":"uint256"}],"stateMutability":"view","type":"function"},{"inputs":[],"name":"averageRelGHGV","outputs":[{"internalType":"uint256","name":"","type":"uint256"}],"stateMutability":"view","type":"function"},{"inputs":[],"name":"compareGHG","outputs":[],"stateMutability":"nonpayable","type":"function"},{"inputs":[{"internalType":"bytes32","name":"_requestId","type":"bytes32"},{"internalType":"uint256","name":"_data","type":"uint256"}],"name":"fulfill","outputs":[],"stateMutability":"nonpayable","type":"function"},{"inputs":[],"name":"getData","outputs":[{"internalType":"uint256[]","name":"","type":"uint256[]"}],"stateMutability":"view","type":"function"},{"inputs":[],"name":"getRelChange","outputs":[],"stateMutability":"nonpayable","type":"function"},{"inputs":[],"name":"lastAWETHBalance","outputs":[{"internalType":"uint256","name":"","type":"uint256"}],"stateMutability":"view","type":"function"},{"inputs":[{"internalType":"uint256","name":"","type":"uint256"}],"name":"oracleData","outputs":[{"internalType":"uint256","name":"","type":"uint256"}],"stateMutability":"view","type":"function"},{"inputs":[],"name":"payOrGetPaid","outputs":[],"stateMutability":"nonpayable","type":"function"},{"inputs":[{"internalType":"uint256","name":"","type":"uint256"}],"name":"penalized","outputs":[{"internalType":"address","name":"","type":"address"}],"stateMutability":"view","type":"function"},{"inputs":[{"internalType":"uint256","name":"","type":"uint256"}],"name":"relativeGHG","outputs":[{"internalType":"uint256","name":"","type":"uint256"}],"stateMutability":"view","type":"function"},{"inputs":[{"internalType":"string","name":"_API","type":"string"}],"name":"requestVolumeData","outputs":[{"internalType":"bytes32","name":"requestId","type":"bytes32"}],"stateMutability":"nonpayable","type":"function"},{"inputs":[],"name":"requesterToData","outputs":[],"stateMutability":"nonpayable","type":"function"},{"inputs":[{"internalType":"uint256","name":"","type":"uint256"}],"name":"requesters","outputs":[{"internalType":"address","name":"","type":"address"}],"stateMutability":"view","type":"function"},{"inputs":[{"internalType":"uint256","name":"","type":"uint256"}],"name":"rewarded","outputs":[{"internalType":"address","name":"","type":"address"}],"stateMutability":"view","type":"function"},{"inputs":[{"internalType":"uint256","name":"_data","type":"uint256"}],"name":"setData","outputs":[],"stateMutability":"nonpayable","type":"function"},{"inputs":[],"name":"stake","outputs":[],"stateMutability":"payable","type":"function"},{"inputs":[{"internalType":"uint256","name":"","type":"uint256"}],"name":"stakerReg","outputs":[{"internalType":"address payable","name":"","type":"address"}],"stateMutability":"view","type":"function"},{"inputs":[],"name":"stakingpool","outputs":[{"internalType":"address","name":"","type":"address"}],"stateMutability":"view","type":"function"},{"inputs":[],"name":"withdrawLink","outputs":[],"stateMutability":"nonpayable","type":"function"}]}