{"address":"0xCf7Ed3AccA5a467e9e704C703E8D87F634fB0Fc9","bytecode":"0x6080604052600280546001600160a01b031916735b38da6a701c568545dcfcb03fcb875f56beddc417905534801561003657600080fd5b506109a4806100466000396000f3fe60806040526004361061009c5760003560e01c80636e4714e4116100645780636e4714e4146101bc57806370a08231146101d1578063933b591214610204578063a38f574214610219578063aa4dea0014610243578063bb4772e51461026d5761009c565b80633a4b66f1146100a15780633bc5de30146100ab5780634819c632146101105780635b4b73a91461014c57806361598c7114610176575b600080fd5b6100a9610282565b005b3480156100b757600080fd5b506100c0610338565b60408051602080825283518183015283519192839290830191858101910280838360005b838110156100fc5781810151838201526020016100e4565b505050509050019250505060405180910390f35b34801561011c57600080fd5b5061013a6004803603602081101561013357600080fd5b5035610399565b60408051918252519081900360200190f35b34801561015857600080fd5b506100a96004803603602081101561016f57600080fd5b50356103b7565b34801561018257600080fd5b506101a06004803603602081101561019957600080fd5b5035610463565b604080516001600160a01b039092168252519081900360200190f35b3480156101c857600080fd5b506101a061048a565b3480156101dd57600080fd5b5061013a600480360360208110156101f457600080fd5b50356001600160a01b0316610499565b34801561021057600080fd5b506100a96104b4565b34801561022557600080fd5b5061013a6004803603602081101561023c57600080fd5b503561072b565b34801561024f57600080fd5b5061013a6004803603602081101561026657600080fd5b5035610738565b34801561027957600080fd5b506100a9610745565b600034116102c15760405162461bcd60e51b815260040180806020018281038252602481526020018061094b6024913960400191505060405180910390fd5b336000818152600860209081526040808320805460ff1916600190811790915580548082019091557fb10e2d527612073b26eecdfd717e6a320cf44b4afac2b0732d9fcbe2b7fa0cf60180546001600160a01b0319169094179093556002546001600160a01b031682526005905220805434019055565b3360009081526007602090815260409182902080548351818402810184019094528084526060939283018282801561038f57602002820191906000526020600020905b81548152602001906001019080831161037b575b5050505050905090565b600481815481106103a657fe5b600091825260209091200154905081565b3360009081526008602052604090205460ff1661040a576040805162461bcd60e51b815260206004820152600c60248201526b2737ba10309039ba30b5b2b960a11b604482015290519081900360640190fd5b33600090815260076020908152604082208054600181810183559184529183209091019290925560048054928301815581527f8a35acfbc15ff81a39ae7d344fd709f28e8600b4aa8c65c6b64bfe7fe36bd19b90910155565b6001818154811061047057fe5b6000918252602090912001546001600160a01b0316905081565b6002546001600160a01b031681565b6001600160a01b031660009081526005602052604090205490565b60046000815481106104c257fe5b90600052602060002001546000141580156104f6575060046001815481106104e657fe5b9060005260206000200154600014155b610547576040805162461bcd60e51b815260206004820152601960248201527f5761697420666f72204f7261636c6520746f20616e7377657200000000000000604482015290519081900360640190fd5b610568600460008154811061055857fe5b90600052602060002001546108a0565b610579600460018154811061055857fe5b600460018154811061058757fe5b906000526020600020015460046000815481106105a057fe5b906000526020600020015410156106a7576105dc60016000815481106105c257fe5b6000918252602090912001546001600160a01b03166108e1565b61061b6005600060016000815481106105f157fe5b60009182526020808320909101546001600160a01b031683528201929092526040019020546108a0565b600254610630906001600160a01b0316610499565b60056000600160008154811061064257fe5b60009182526020808320909101546001600160a01b039081168452908301939093526040909101902080549092019091556002546106809116610499565b6002546001600160a01b031660009081526005602052604090208054919091039055610729565b60046001815481106106b557fe5b906000526020600020015460046000815481106106ce57fe5b90600052602060002001541115610729576106ef600180815481106105c257fe5b61070360056000600180815481106105f157fe5b600254610718906001600160a01b0316610499565b600560006001808154811061064257fe5b565b600081815481106103a657fe5b600381815481106103a657fe5b60005b60015460ff8216101561089d5760005b6007600060018460ff168154811061076c57fe5b60009182526020808320909101546001600160a01b0316835282019290925260400190205460ff821610156108945760ff8116610816576007600060018460ff16815481106107b757fe5b60009182526020808320909101546001600160a01b031683528201929092526040019020805460ff83169081106107ea57fe5b906000526020600020015460048360ff168154811061080557fe5b60009182526020909120015561088c565b6007600060018460ff168154811061082a57fe5b60009182526020808320909101546001600160a01b031683528201929092526040019020805460ff831690811061085d57fe5b906000526020600020015460048360ff168154811061087857fe5b600091825260209091200180549190910390555b600101610758565b50600101610748565b50565b6040805160248082018490528251808303909101815260449091019091526020810180516001600160e01b031663f5b1bba960e01b17905261089d90610929565b604080516001600160a01b0383166024808301919091528251808303909101815260449091019091526020810180516001600160e01b031663161765e160e11b17905261089d905b80516a636f6e736f6c652e6c6f67602083016000808483855afa505050505056fe5374616b696e6720616d6f756e74206d75737420626520686967686572207468616e2030a2646970667358221220251949d9a86e30c659346ab9d674960a1428944745f8557027975d1c5062044f64736f6c63430006070033","abi":[{"inputs":[{"internalType":"address","name":"_user","type":"address"}],"name":"balanceOf","outputs":[{"internalType":"uint256","name":"","type":"uint256"}],"stateMutability":"view","type":"function"},{"inputs":[],"name":"compareGHG","outputs":[],"stateMutability":"nonpayable","type":"function"},{"inputs":[],"name":"getData","outputs":[{"internalType":"uint256[]","name":"","type":"uint256[]"}],"stateMutability":"view","type":"function"},{"inputs":[],"name":"getRelChange","outputs":[],"stateMutability":"nonpayable","type":"function"},{"inputs":[{"internalType":"uint256","name":"","type":"uint256"}],"name":"oracleData","outputs":[{"internalType":"uint256","name":"","type":"uint256"}],"stateMutability":"view","type":"function"},{"inputs":[{"internalType":"uint256","name":"","type":"uint256"}],"name":"relativeGHG","outputs":[{"internalType":"uint256","name":"","type":"uint256"}],"stateMutability":"view","type":"function"},{"inputs":[{"internalType":"uint256","name":"_data","type":"uint256"}],"name":"setData","outputs":[],"stateMutability":"nonpayable","type":"function"},{"inputs":[],"name":"stake","outputs":[],"stateMutability":"payable","type":"function"},{"inputs":[{"internalType":"uint256","name":"","type":"uint256"}],"name":"stakerReg","outputs":[{"internalType":"address","name":"","type":"address"}],"stateMutability":"view","type":"function"},{"inputs":[],"name":"stakingpool","outputs":[{"internalType":"address","name":"","type":"address"}],"stateMutability":"view","type":"function"},{"inputs":[{"internalType":"uint256","name":"","type":"uint256"}],"name":"volume","outputs":[{"internalType":"uint256","name":"","type":"uint256"}],"stateMutability":"view","type":"function"}]}